:100000008031152808000800803120007F08D800C2
:1000100027001608031D0D2811289331C4238031B1
:10002000112820005808FF00090092318B2AD63091
:10003000860001308700AD308400003085000C3030
:10004000FF0016001A00FF0B21282100E5010830EF
:100050006502031C2C282D282F286C286C28650885
:10006000A200A3010230A235A30D890B3328220878
:10007000013EA4000030233DA50024082007A6006F
:100080002508213DA7002608860027088700403F55
:10009000A800413FA900423FAA00433FAB006508CA
:1000A000AC000130AC35FF3E031D52282C35B93E63
:1000B000860087012808C03F2908C13F2A08C23F9F
:1000C0002B08C33F0130A2002208E5070830650273
:1000D000031C6B286C282F28E50103306502031CE4
:1000E000722873287528312C312C6503FF3AA20041
:1000F0000130A235FF3E031D79282235183EB93E56
:1001000086008701403FA300413FA400423FA50075
:10011000433FA6006503FF3AA7000130A735FF3E25
:10012000031D8E282735143EB93E86008701403FC7
:10013000A800413FA900423FAA00433FAB0023086B
:100140002806E10024082906E20025082A06E30023
:1001500026082B06E4006503FF3AA2000130A23511
:10016000FF3E031DAF282235103EB93E86008701B1
:1001700061080105A300413162080105A400413175
:1001800063080105A500413164080105A6002608A1
:10019000E4002508E3002408E2002308E1006503E9
:1001A000FF3AA2000130A235FF3E031DD3282235BD
:1001B000183EB93E8600870161080106A30041315F
:1001C00062080106A400413163080106A50041311F
:1001D00064080106A6002608E4002508E3002408B8
:1001E000E2002308E1006508A2000130A235FF3ECD
:1001F000031DF6282235AD3E86008701403FE1070A
:10020000413FE23D423FE33D433FE43D6508A200FC
:10021000A3010230A235A30D890B0A292208213E31
:10022000A4000030233DA50024082007A6002508CF
:10023000213DA7002608860027088700403FE107E8
:10024000413FE23D423FE33D433FE43D6503FF3A2A
:10025000A2000130A235FF3E031D2A2922351C3E93
:10026000B93E86008701403FE107413FE23D423F02
:10027000E33D433FE43D6503FF3AA2000130A23570
:10028000FF3E031D3F292235103EB93E86008701FF
:10029000403F2000D900413FDA00423FDB00433FAE
:1002A000DC001A302100A30023082000DD0090317B
:1002B0002520803120005C082100E00020005B0840
:1002C0002100DF0020005A082100DE00200059082C
:1002D0002100DD006503FF3AA2000130A235FF3E98
:1002E000031D6E292235103EB93E86008701403F2E
:1002F0002000D900413FDA00423FDB00433FDC00F1
:1003000015302100A30023082000DD0090312520B6
:10031000803120005C082100DC0020005B08210007
:10032000DB0020005A082100DA00200059082100D3
:10033000D9005D085906A2005E085A06A3005F08AE
:100340005B06A40060085C06A5002508DC00240804
:10035000DB002308DA002208D9006503FF3AA20077
:100360000130A235FF3E031DB1292235103EB93EB2
:1003700086008701403F2000D900413FDA00423F1C
:10038000DB00433FDC0007302100A30023082000EE
:10039000DD0090312520803120005C082100E00044
:1003A00020005B082100DF0020005A082100DE0049
:1003B000200059082100DD005D085906A2005E08F2
:1003C0005A06A3005F085B06A40060085C06A5004F
:1003D0002508DC002408DB002308DA002208D90005
:1003E00059086107A2005A08623DA3005B08633DFB
:1003F000A4005C08643DA5006503FF3AA600013037
:10040000A635FF3E031D002A26351C3EB93E860058
:1004100087012208C03F2308C13F2408C23F2508A6
:10042000C33F6503FF3AA2000130A235FF3E031D22
:10043000152A22351C3EB93E86008701403FA300A5
:10044000413FA400423FA500433FA6006503FF3A99
:10045000A7000130A735FF3E031D2A2A27350C3E91
:10046000B93E86008701403FA307413FA43D423F7C
:10047000A53D433FA63D6503FF3AA8000130A835DE
:10048000FF3E031D3F2A28350C3EB93E86008701FA
:100490002308C03F2408C13F2508C23F2608C33FA8
:1004A0006503FF3A0739A2000130A235FF3E031D64
:1004B000552A2235B93E86008701403F2000D900E9
:1004C000413FDA00423FDB00433FDC001E302100A9
:1004D000A30023082000DD0090312520803120007A
:1004E0005C082100E40020005B082100E3002000FC
:1004F0005A082100E200200059082100E1006503AC
:10050000FF3A0739A2000130A235FF3E031D842ABD
:100510002235B93E86008701403F2000D900413F87
:10052000DA00423FDB00433FDC0013302100A30030
:1005300023082000DD0090312520803120005C0858
:100540002100E00020005B082100DF0020005A08A5
:100550002100DE00200059082100DD005D08610651
:10056000A2005E086206A3005F086306A40060089C
:100570006406A5002508E0002408DF002308DE004B
:100580002208DD006503FF3A0739A2000130A235D9
:10059000FF3E031DC72A2235B93E86008701403F32
:1005A0002000D900413FDA00423FDB00433FDC003E
:1005B0000A302100A30023082000DD00903125200F
:1005C000803120005C082100E40020005B0821004D
:1005D000E30020005A082100E20020005908210011
:1005E000E10061085D06A20062085E06A3006308E0
:1005F0005F06A40064086006A5002508E000240842
:10060000DF002308DE002208DD006503FF3A013E1B
:100610000739A2000130A235FF3E031D0B2B223506
:10062000B93E86008701403FA300413FA400423FFE
:10063000A500433FA6006503FF3A0739A700013034
:10064000A735FF3E031D202B2735B93E86008701C5
:10065000403FA800413FA900423FAA00433FAB00F2
:1006600023082804E10024082904E20025082A04BC
:10067000E30026082B04E4006503FF3A023E073935
:10068000A2000130A235FF3E031D422B2235B93EA8
:100690008600870161080105A30041316208010558
:1006A000A400413163080105A5004131640801053A
:1006B000A6002608E4002508E3002408E200230839
:1006C000E1006503FF3A013E0739A2000130A2357F
:1006D000FF3E031D672B2235B93E86008701403F50
:1006E000A300413FA400423FA500433FA60065038D
:1006F000FF3A0739A7000130A735FF3E031D7C2BC9
:100700002735B93E86008701403FA800413FA90038
:10071000423FAA00433FAB0023082805D900240824
:100720002905DA0025082A05DB0026082B05DC0050
:1007300061085904A20062085A04A30063085B041C
:10074000A40064085C04A5002508E4002408E30074
:100750002308E2002208E1005D086107A2005E08AC
:10076000623DA3005F08633DA4006008643DA500EE
:100770006503FF3AA6000130A635FF3E031DBC2BE2
:1007800026351C3EB93E860087012208810741318B
:100790002308813D41312408813D41312508813DB7
:1007A0006503FF3AA2000130A235FF3E031DD42BA2
:1007B00022351C3EB93E86008701403FA300413FE1
:1007C000A400423FA500433FA6006503FF3AA700EF
:1007D0000130A735FF3E031DE92B2735083EB63E05
:1007E0008600013087002308C03F2408C13F250848
:1007F000C23F2608C33F6503FF3AA2000130A2357D
:10080000FF3E031DFF2B22350C3EB93E86008701BB
:10081000403FA300413FA400423FA500433FA60044
:100820006503FF3AA7000130A735FF3E031D142CD6
:100830002735143EB63E8600013087002308C03FAE
:100840002408C13F2508C23F2608C33F0130A2004B
:100850002208E50703306502031C2F2C302C752875
:10086000312C08002100EF001C2E03302200500222
:1008700003183B2C3C2CA72C21006F08023E86005D
:100880000230870020006B0822005007DA00DB01ED
:10089000DB0D03305A052000D900003022005B0533
:1008A0002000DA002D30DB000030DC009F315427BF
:1008B00084313C302200DC002330DD002000590868
:1008C00022005C07DE0020005A0822005D3DDF00A8
:1008D0005E0884005F0885002D30FF0016001A00B6
:1008E000FF0B6E2C0130DA005A08D0074D08523A3F
:1008F000031D7B2C7C2CA72C20006B082200DA0027
:10090000DB015A082000D90022005B082000DA0031
:100910002D30DB000030DC009F31542784313C3027
:100920002200DC002330DD002000590822005C0793
:100930002100A00020005A0822005D3D2100A100F6
:10094000803117208431973167278431A72C21000B
:100950006F082000DF000230E0004D30E100013080
:10096000E2000D302200DA005A082000E3008B314B
:10097000C5238431352E00302000EB002200DA0040
:100980005A08D0005230DA005A08CD0021006F0812
:100990002000DF000230E0004D30E1000130E200D5
:1009A0000D302200DA005A082000E3008B31C52305
:1009B0008431352E21006F082000DF000230E00076
:1009C0009F30E1008830E2000C302200DA005A0843
:1009D0002000E3008B31C5238431352E21006F08C0
:1009E0002000DF000230E0004D30E1000130E20085
:1009F0000D302200DA005A082000E3008B31C523B5
:100A00008431352E21006F08023E860002308700B7
:100A10001600010403190D2D0E2DC52D6F08023E81
:100A2000860002308700EA308400013085000630FD
:100A3000FF0016001A00FF0B192D003023006B0277
:100A4000803003196A020318262D272D2B2D8030A4
:100A5000EA000030EB0000306B02FB3003196A0241
:100A60000318332D342D412D00306B02E130031972
:100A70006A02031C3C2D3D2D412DE030EA00003080
:100A8000EB0001306B02C23003196A02031C492DCE
:100A90004A2D4E2DC130EA000130EB0000306B02D0
:100AA000FB3003196A020318562D572D822D6A0850
:100AB0002200DA0023006B082200DB00DC01DD01EC
:100AC0000130DA35DB0DDC0DDD0D890B612D1230C7
:100AD000DA35DB0DDC0DDD0D890B682D17305A047E
:100AE0002300E200003022005B042300E300033017
:100AF00022005C042300E400003022005D04230097
:100B0000E500A62D6A082200DA0023006B08220007
:100B1000DB00DC01DD011230DA35DB0DDC0DDD0D33
:100B2000890B8C2D07305A042300E200003022008C
:100B30005B042300E300033022005C042300E40094
:100B4000003022005D042300E500A62D6B08200084
:100B5000DA01DA0723006A082000D901D907043036
:100B6000DB003030DC009031A220843120005908B5
:100B7000FF3A013E2200DA005A08CC0023006E083A
:100B80002C0092002200D401C52D21006F08200006
:100B9000DF000230E000EA30E1000130E200063020
:100BA0002200DA005A082000E3008B31C52384318B
:100BB000352E21006F08023E8600023087000108B2
:100BC000313A0030031901302200DA00DA0E0C0845
:100BD0005A06EF395A068C0021006F08023E860043
:100BE000023087000108313A0319F72DF82DFD2D49
:100BF0004430ED000030EE00012E5230ED000030A8
:100C0000EE006D082200DA005A08CD0021006F08BE
:100C10002000DF000230E0004D30E1000130E20052
:100C20000D302200DA005A082000E3008B31C52382
:100C30008431352E352E352E21006F088600023086
:100C400087000108413A0319BB2C023A0319022D0F
:100C5000063A0319D92D0C3A0319DA2C1A3A03195A
:100C6000EE2C043A0319352C352E22008C16080080
:100C7000422E3D008E0192012200B6012000121189
:100C8000992F992F2200B608031D472E482E5B2E60
:100C90003D008E019201163091009F3097007B300D
:100CA0009200532E8E158E1D562E572E522E220038
:100CB000B601B60A5B2E3608013A031D602E612E7E
:100CC000722E3D008E1A652E662E722E90019201B4
:100CD0001214121602302100B50035082200B600A9
:100CE000722E722E3D00101D762E772E852E121D2F
:100CF0007A2E7B2E852EFB302100B50035083D0075
:100D000090059E3179268631852E3D008E1C892ED8
:100D10008A2E8D2E20001211992F101C902E912EAC
:100D2000A52E121C942E952EA52E8D31E3258631ED
:100D300004302100B50035082200B600FE30210045
:100D4000B50035083D009005A52E101EA82EA92E31
:100D5000B72E121EAC2EAD2EB72E9E31B226863186
:100D6000EF302100B50035083D009005B72E101F6B
:100D7000BA2EBB2EE82E121FBE2EBF2ED02E7330E1
:100D80002100A3000030A4000030A5000030A60020
:100D90000130A7000030A8009031E8208631D02E25
:100DA000BF302100B50035083D00900522003B080A
:100DB000031DDB2EDE2E0130BB02DE2EBB08031D21
:100DC000E22EE32EE82E943134248631E82EE82EEC
:100DD0003D00901EEC2EED2EF52E921EF02EF12EE3
:100DE000F52E9F3179278631F52E3D00901CF92E86
:100DF000FA2E112F921CFD2EFE2E112FFF302100F6
:100E0000A3007F30A4000030A5000030A600013010
:100E1000A7000030A8009031E82086313D00930102
:100E2000112F0430220036020318172F182F1B2F02
:100E300020001211992F3D00921D1F2F202F972F58
:100E40002100B70104303702031C272F282F2A2F37
:100E5000972F972F3D00901D2E2F2F2F972F0F0884
:100E60002100B50035082000EF006F0C2100B5000F
:100E7000B50C350C0F39B60036082200BD00F7302E
:100E80002100B50035083D00900520006F19492F5D
:100E90004A2F5C2F22003D08243E86000130870047
:100EA000010801392100B5000130B50601083506F9
:100EB000FE39350681006E2F22003D08223E860055
:100EC00001308700010801392100B5000130B50665
:100ED00001083506FE39350681006E2F2200BD0857
:100EE000031D732F742F782F9531AC2586318B2FEE
:100EF00072302100A3000030A4006F30A500003044
:100F0000A6000030A7000030A8009031E82086310C
:100F10008B2F8B2F972F01302100B5003508B70795
:100F200004303702031C952F962F2A2F972F20006D
:100F3000121108002000C801C901E22F2200C517C4
:100F400020004814A32F22002F08013A031DA92FC7
:100F5000AA2FEE2F2000C814EE2FEE2F2200C51767
:100F6000EE2F2200C5172000C41BB72FB82FC32FA8
:100F700044080F39263E8600013087000108D90059
:100F80005908DA00CD2F44080F39673E86008701E3
:100F90000108D9005908DA00CD2F5A0886008701C8
:100FA000811FD32FD42FEE2F5A0886008701011DF1
:100FB000DA2FDB2FEE2F0130D9005908C800EE2FB1
:100FC000EE2FEE2F40081F39003A03199E2F013AE9
:100FD0000319AE2F033A0319B12FEE2F2200C51FBC
:100FE000F22FF32FFF2F4830C3000030C400451408
:100FF00002302000D90059082200C600FF2F080047
:101000000034AB34053439346D34343403344B3468
:1010100000346C3400346F3400346E340034643483
:101020000034693400346B340034653400342034C7
:10103000003450340034723400346F3400346A3475
:1010400000346534003463340034743400340034C4
:1010500000340034003400340034003400340034F0
:1010600000340034003400340034003400340034E0
:101070000034343403344B340034313400343634E7
:1010800000340034003400340034003400340034C0
:1010900000340034003400340034003400340034B0
:1010A00000340034003400340034003400340034A0
:1010B0000034003400340034003400340034003490
:1010C0000034003400340034003400340034003480
:1010D0000034003400340034003409340234203445
:1010E0000034013401340034C0343234093404345F
:1010F000003400340234FF34FF34FF34003407344A
:1011000005340134023440340034013407340534EA
:101110008134023440340034013412340134003458
:1011200002340034003400340834D83404340A342F
:10113000F634003400340134023400340134103405
:101140004B34313436340034003400340034EF345E
:10115000BE34AD34DE3404340334093404340800BE
:10116000080008008831AF208831080020004008BE
:10117000803A031DBC28BD283B29C030D90059083E
:101180002200C5002E298D302200C3008830C40003
:101190001230C6000030C7003B290430840088307C
:1011A00085002000420884070318850A003F2200BA
:1011B000C3008830C40044082000DA00220043083D
:1011C0002000D9000230590784005A0803185A0A2F
:1011D00085000008DB005B082200C60044082000F0
:1011E000DA00220043082000D900033059078400A8
:1011F0005A0803185A0A85000008DB005B08220021
:10120000C7003B290330200042020318082909299E
:10121000262901308400883085004208840703189D
:10122000850A003F2200C3008830C40043088400C0
:101230004408850000082000D900DA01590822007E
:10124000C60020005A082200C7003B292200C50121
:101250003B293B292200C5013B293B2920004308AB
:10126000013A0319C328033A0319CD28013A031997
:1012700002292A293B2908007A082000D000D10140
:1012800022004A082000D200D3015208F00053087F
:10129000F1000F30F2000030F3009F313027893128
:1012A000200050087007D4005108713DD500540843
:1012B000023ED6000030553DD7005708803AFF0067
:1012C00080307F02031D66294030560203186929C9
:1012D0006A29D5297608860077088700010820004A
:1012E000D0000F30D1005108F00022004A089E3192
:1012F00013268931203E86000230870020005008E6
:101300008100220031082000D0000F30D1005108A8
:10131000F00022004A089E3113268931013E203E0A
:10132000860002308700200050088100FB01C4299C
:101330007908D1007808D0007B0850078400510854
:101340000318510A85000008D20022004A08200034
:10135000D300D4015308F0005408F1000F30F2001C
:101360000030F3009F313027893170087B07023E3F
:10137000203E8600023087002000520881000130A4
:10138000D0005008FB07C4297A087B02031CC92936
:10139000CA299829CB2922004A08013E0339200096
:1013A000D00050082200CA00D52908002200C51725
:1013B0000E302100AA009930A900AB012B08031DB3
:1013C000E229E429F829F829290886002A08870053
:1013D00081010130A9070030AA3D01302000E6005C
:1013E00066082100AB072B08031DF729E429F8291B
:1013F00020302000D9000030DA000030DB0000305F
:10140000DC002030DD000030DE009031002089312A
:101410003D000E172100AC0102302C02031C112AE2
:10142000122A142A2D2A2D2A2C08223E8600013049
:10143000870081012C08243E86000130870081014D
:1014400001302000E60066082100AC0702302C02C3
:10145000031C2B2A2C2A142A2D2A49302000D900BB
:101460000130DA000030DB000030DC000130DD004C
:101470000030DE009031002089313D000E1328300D
:101480002000E6006608E7002030E6006608EC0071
:101490006C08E6006608ED004208E60066082200D7
:1014A000C800C808031D552A562A5D2A103020009E
:1014B000E60066082200B600742A01302100A3006D
:1014C0000030A4004830A5000130A6000130A7007C
:1014D0000030A8009031E820893120302000E6005B
:1014E00066082200B600742A080008302000D900DF
:1014F0005908DB0000302200470208300319460279
:101500000318832A842AA12A46082000D9005908F2
:10151000DB002200C208031D8E2A8F2A922AC201F4
:10152000C20AA12A4208013A031D972A982AA12A31
:1015300002302000D90059082200C200A12AA12AA5
:10154000A12A0330433E86000130870020005B085B
:10155000D900DA01D909DA09D90A0319DA0A403FB0
:1015600059072200C600413F20005A3D2200C70013
:1015700020005B08D900670A8600870159088100AE
:101580004830D90059082200C0004518C82AC92A85
:10159000102BE92AE92A2200430884004408850028
:1015A00000082000D90022004008860087012000A2
:1015B0005908810001302200C3070030C43D0130CA
:1015C0002000D90059082200C00701302000DB02AA
:1015D000E92A2000DB08031DEE2AEF2ACB2A182B6C
:1015E000182B102B220043088400440885000008B3
:1015F0002000D900220040088600870120005908F9
:10160000810001302200C3070030C43D01302000BA
:10161000D90059082200C00701302000DB02102B3E
:101620002000DB08031D152B162BF22A182B182B74
:1016300008002200280886002908870048308E010B
:10164000011890308E0048308E01811890308E0045
:1016500048308E01011990308E0048308E0181197A
:1016600090308E0048308E01011A90308E00483044
:101670008E01811A90308E0048308E01011B90300F
:101680008E0048308E01811B90308E0041314830F1
:101690008E01011890308E0048308E0181189030F4
:1016A0008E0048308E01011990308E0048308E0136
:1016B000811990308E0048308E01011A90308E00D2
:1016C00048308E01811A90308E0048308E01011B07
:1016D00090308E0048308E01811B90308E00413159
:1016E00048308E01011890308E0048308E018118EC
:1016F00090308E0048308E01011990308E004830B5
:101700008E01811990308E0048308E01011A903080
:101710008E0048308E01811A90308E0048308E0144
:10172000011B90308E0048308E01811B90308E005E
:10173000413148308E01011890308E0048308E01C2
:10174000811890308E0048308E01011990308E0043
:1017500048308E01811990308E0048308E01011A78
:1017600090308E0048308E01811A90308E004830C3
:101770008E01011B90308E003E088E01811B3F08B8
:101780008E004131C10B1E2B080020006308210090
:10179000A000A10122004A082100A200A301220802
:1017A0002000D900210023082000DA000F30DB00E0
:1017B0000030DC009F3154278B31210020082000AD
:1017C00059072100A400210820005A3D2100A5004E
:1017D0002408023EA6000030253DA7002708803AD5
:1017E000FF0080307F02031DF72B403026020318D4
:1017F000FA2BFB2B742C20005F0886006008870002
:1018000001082100A0000F30A10021082000D9000C
:1018100022004A089E3145268B31203E8600023048
:101820008700210020088100220031082100A0004B
:101830000F30A10021082000D90022004A089E3163
:1018400045268B31013E203E860002308700210074
:10185000200881002000E401632C62082100A1001F
:10186000200061082100A00020006408210020075A
:10187000840021080318210A85000008A200220024
:101880004A082100A300A40123082000D900210058
:1018900024082000DA000F30DB000030DC009F312C
:1018A00054278B31200059086407023E203E8600F1
:1018B000023087002100220881000130A0002008AA
:1018C0002000E407632C63086402031C682C692C65
:1018D0002D2C6A2C22004A08013E03392100A00069
:1018E00020082200CA00742C080010302100A0003B
:1018F00020082200CE0002302000D9000030DA009B
:1019000022004E08013E2000DB00003003180130A9
:10191000DC009231ED228C31200059082100A0001A
:1019200020082200E80068082100A000A10120088A
:101930002000D900210021082000DA000030DB005F
:101940004030DC009231ED228C3120005A08220018
:10195000D801D807200059082200D701D707003046
:101960002600A3000030A2000030A1000030A0003B
:101970002000E201E20A142D62082100A0000130DB
:10198000A035FF3E031DC02C2035FC3E203E8600C6
:1019900003308700403FA100413FA200423FA30027
:1019A000433FA400220068082100A5000130A535AE
:1019B000FF3E031DD72C2535FC3E403E86000330FC
:1019C0008700403FA600413FA700423FA800433F99
:1019D000A9000130A635A70DA80DA90D890BEA2C89
:1019E0002608A1072708A23D2808A33D2908A43DF1
:1019F000200062082100AA000130AA35FF3E031D25
:101A0000FD2C2A35203E8600033087002108C03F88
:101A10002208C13F2308C23F2408C33F0130A00071
:101A200020082000E207142D22006808200062022E
:101A3000031C1B2D1C2DBC2C1D2D52302100A00081
:101A400020082200CD00D501D601080020006C0A34
:101A5000860087010108DB005B08DE005E08DB0012
:101A6000DC015C0823003402031D3A2D20005B08D2
:101A70002300330203183D2D3E2D442D3308200052
:101A8000DB005B08DE00442D0330B03E86000130F1
:101A9000870020005E08DB00DC01DB09DC09DB0AD3
:101AA0000319DC0A403F5B072300B300413F2000DD
:101AB0005C3D2300B4002000DD01762D5D08483E2A
:101AC000860087010108DB002300300886008701BB
:101AD00020005B0881000130DB005B082300B007B9
:101AE00001302000DB005B08DD07762D5E085D021B
:101AF000031C7B2D7C2D5E2D7D2D0330B03E86009A
:101B000001308700160001040319872D882DB32D9D
:101B10000830DB006D0A860087015B0881004830D1
:101B2000DB000030DC006D08023E860087015B08A8
:101B3000C03F5C08C13F6C0886008701011BA12DD6
:101B4000A22DAA2DC830DB006D08860087015B0836
:101B50008100E22D8830DB006D08860087015B087C
:101B60008100E22DE22D0830DB006D0A860087013E
:101B70005B0881004030DB000030DC006D08023E75
:101B8000860087015B08C03F5C08C13F8430DB00F2
:101B90006D08860087015B08810023003508031D5E
:101BA000D22DD62D35088D31D42DD62DB21320004F
:101BB000EA08031DDC2DDD2DE22D943134248D3116
:101BC000E22DE22D0800210012113D009301900149
:101BD00098010E302000DC009930DB00DD015D084B
:101BE000031DF32DF52D072E072E5B0886005C08DC
:101BF000870081010130DB070030DC3D0130D90076
:101C00005908DD075D08031D062EF52D072E163039
:101C10003D0091009F3097007B3092002000DE0154
:101C200008305E02031C152E162E182E352E352E6A
:101C30005E08D9000130D935FF3E031D1B2E5935F2
:101C4000203E860087010030C03F0030C13F003099
:101C5000C23F0030C33F0130D9005908DE070830C9
:101C60005E02031C342E352E182E3D000E179601F1
:101C70000E120E13482EF7302000D90059083D00EF
:101C800090052200C5012300B201B301B401482E22
:101C90003D0090194C2E4D2E3B2E4E2E0130200033
:101CA000D90059082200B90001302000D900590894
:101CB0002200BA00B401B501B3012000DE010230F8
:101CC0005E02031C642E652E672E892E892E5E0807
:101CD000673E8600870181015E08263E860001304E
:101CE000870081015E08223E860001308700810165
:101CF0005E08243E86000130870081010130D90052
:101D00005908DE0702305E02031C872E882E672EDC
:101D1000892E2830D9005908E70016303D00980078
:101D200040302000D9000030DA005908A2005A08DB
:101D3000A3000830D9005908A1008430D9005908FF
:101D4000A0002200C801B601080020004208013AA4
:101D5000031DAB2EAC2EC42E40081F390038031DC6
:101D6000B22EB32EC42E2200C51720004108033A1C
:101D7000031DBB2EBC2EC02E2200AF01AF0AC42E05
:101D80002200AF01C42EC42E20004208031DC92E1C
:101D9000CA2EFF2F40081F39023A031DD02ED12E24
:101DA000FF2F44080F39003A0319D72ED82EFF2FE2
:101DB00044080F392100A900023029020318E12E3E
:101DC000E22EFF2F22003608203A031DE82EE92ECE
:101DD000FF2FC5172000C41BEE2EEF2E072F44083F
:101DE0000F39263E86000130870001082100A90036
:101DF0002908AE00200044080F39243E8600013037
:101E0000870001082100A9002908AD001F2F20002C
:101E100044080F39673E8600870101082100A900A8
:101E20002908AE00200044080F39223E8600013008
:101E3000870001082100A9002908AD001F2F2D18D7
:101E4000222F232F282FFB30A9002908AE05292F88
:101E50002E152000C41B2D2F2E2F3C2F21002E08C5
:101E6000A900200044080F39263E86000130870073
:101E7000210029088100492F21002E08A9002000F7
:101E800044080F39673E8600870121002908810038
:101E9000492F20004108033A031D4F2F502F762F62
:101EA00021002E0886008701811F572F582F6D2F84
:101EB0002000C41B5C2F5D2F652F44080F39243E82
:101EC00086000130870081146D2F44080F39223EAF
:101ED00086000130870081146D2F84302100A90015
:101EE0002E088600870129088104FF2F0430210075
:101EF000A9002908AE062E0886008701811F812FC0
:101F0000822F9D2F7F30A9002E0886008701290887
:101F100081052E088600870101170530A3000030D7
:101F2000A4002E08A5000030A6000130A700003054
:101F3000A8009031E8208E31A32F21002E088600C2
:101F400087010117A32F04302100A9002908AE063C
:101F5000AD18AB2FAC2FB32F2E0886008701811F41
:101F6000B22FB32FDF2F2000C41BB72FB82FC02FE5
:101F700044080F39243E8600013087008110C72FA6
:101F800044080F39223E86000130870081103B3023
:101F90002100A9002E088600870129088105053047
:101FA000A3000030A4002E08A5000030A6000130D8
:101FB000A7000030A8009031E8208E31E82F3B3098
:101FC0002100A9002E088600870129088105E82F35
:101FD000200044080F39983E2100A900AA010E30C4
:101FE000AA3D2908AB002A08AC00FE30A9002B0846
:101FF00086002C08870029088105FF2FFF2F080085
:1020000020005A08E101E1075908E001E00715281E
:102010005B08DF0060088600610887005F088100B8
:102020000130E0070030E13D15280130DD020030CD
:10203000DE3BFF305E06031D1F28FF305D06031DDB
:102040002228232808282428080020005908DE0018
:102050005A08DF005B08E0005C08E1005D03FF3A1E
:10206000203E890A38280310E10CE00CDF0CDE0C5E
:10207000FF3E031D33285908E2005A08E3005B08BD
:10208000E4005C08E5005D0A4928E235E30DE40D53
:10209000E50D890B45286208DE046308DF04640847
:1020A000E0046508E1046108DC006008DB005F080B
:1020B000DA005E08D9005C2808002000DE0020302D
:1020C000DA005A08DF005908DA000130DA35890BE6
:1020D00066285E08DB000130DB35FF3E031D6C28FF
:1020E0005B355A07DC000130DC35FF3E031D7428E8
:1020F0005C35DD005D08DF075F088600870181131E
:10210000D908031D842885288F285F08DA005E0817
:10211000263E8600013087005A08810098285F0813
:10212000DA005E08673E860087015A088100982819
:102130005F088600870101135F08043E860087015F
:10214000011708002000DF01E0015A0859040319B3
:10215000AA28AB28E028DE01DE0AB8280130D935EC
:10216000DA0D890BAF280130DD005D08DE07B828E5
:10217000DA1FBB28BC28AE28BE28BE280130DF35B8
:10218000E00D890BBF285A085C02031DC9285908B5
:102190005B02031CCC28CD28D3285908DB025A083F
:1021A000DC3B5F14D3280130DA36D90C890BD428F4
:1021B0000130DE02031DDD28DE28BE28E028E028ED
:1021C0006008DA01DA075F08D901D907E7280800B3
:1021D000092931298831B1209031312980310320FA
:1021E0009031312980310220903131299F310E27E1
:1021F000903131299D319F25903131298831B2208C
:10220000903131298831B02090313129312931295B
:10221000312921002408003A031912297F3A0319B1
:102220002C2931292308013A0319F628033A031906
:10223000FA28013A0319FE28063A03193129773A98
:1022400003193129013A0319EA28073A0319F22838
:10225000013A0319EE2831292308FF3A031902290C
:10226000312908002200C2012000EA012200B40145
:10227000B501AA01BC017F302100B0002000670831
:10228000860087012100300881050430B000300845
:102290002000E7067F302100B0002000670886009C
:1022A00087012100300881050430B000300820008B
:1022B000E7067F302100B00020006D08860087010E
:1022C0002100300881052200C501C601C701230095
:1022D000B201B301B401933158239131033021008D
:1022E000A3000030A4000030A5000030A60000309C
:1022F000A7000030A8009031E820913196313E26A9
:10230000913108002200B401B5013C08023A031DD6
:102310008A298B29A72908302000DC006D0A860055
:1023200087015C0881004830DC000030DD006D086A
:10233000023E860087015C08C03F5D08C13FC8308F
:10234000DC006D08860087015C088100D729220027
:10235000470820004702031DB1292200460820003B
:1023600046020318B429B529BF2947082200C7012E
:10237000C707200046082200C601C607BF298A31C8
:102380007522913148302000DC000030DD00670804
:10239000023E860087015C08C03F5D08C13FC8302F
:1023A000DC006708860087015C088100D7290800E7
:1023B00022004C082000D900590895070B11230072
:1023C0009D1BE329E429E8299D172200B001E82993
:1023D00022004D08573A031DEE29EF29192A08302B
:1023E0004D3E8600013087000130810741310030C9
:1023F000813D7F31403F5706031D002A413F58066B
:10240000031D032A042A192A5008031D082A112A29
:1024100050302000D90059082200CD002E2A2E2A43
:10242000192A52302000D90059082200CD00192A5B
:10243000192A01302000D90059082200B207031DD3
:10244000222A232A2E2A8C1221001C082000D900BF
:1024500059082200D20021009D142E2A08002000D5
:10246000E2005D08031D352A3E2A6208673E8600A9
:1024700087010108E0006008E300482A6208263E60
:102480008600013087000108E0006008E300482A68
:10249000E308031D4C2A4D2A502A00308A2A8A2A32
:1024A0005E08E0000230E1006308023E860087011A
:1024B0006008C03F6108C13F5F08E000630A860012
:1024C0008701600881004030E000630886008701D2
:1024D000600881058830E000630886008701600895
:1024E00081045D08031D752A7E2A0430E00062081D
:1024F000673E8600870160088106882A0430E00074
:102500006208263E86000130870060088106882A1E
:1025100063088A2A08003C30840023308500B430E8
:10252000FE000030FF009D31AC259231E701E8014B
:10253000E901EA01EB01EC01ED01EE01EF012030D0
:102540008400013085002C30FE000030FF009D31FA
:10255000AC259231A0308400013085003630FE0079
:102560000030FF009D31AC259231203084000330D3
:1025700085002030FE000030FF009D31AC259231F7
:10258000B83084009D3085004C30860001308700D3
:102590000030FF000E309D31A02592315F30840065
:1025A0009E308500D6308600013087000030FF0065
:1025B0001A309D31A0259231EE3084009E30850086
:1025C00040308600033087000030FF0020309D310E
:1025D000A025923120009E31CF2E2000DF01DA1F8E
:1025E000F22AF32AFB2AD909DA09D90A0319DA0AE5
:1025F000DF01DF0AFB2ADC1FFE2AFF2A092BDB0989
:10260000DC09DB0A0319DC0A0130DD005D08DF06A6
:10261000092BE001E1015A0859040319102B112B71
:10262000462BDE01DE0A1E2B0130D935DA0D890B6F
:10263000152B0130DD005D08DE071E2BDA1F212B74
:10264000222B142B242B242B0130E035E10D890B98
:10265000252B5A085C02031D2F2B59085B02031C13
:10266000322B332B392B5908DB025A08DC3B601420
:10267000392B0130DA36D90C890B3A2B0130DE02C6
:10268000031D432B442B242B462B462B5F08031D95
:102690004A2B502BE009E109E00A0319E10A502B0B
:1026A0006108DA01DA076008D901D907572B080059
:1026B0002000400E890C0339003A0319602B612B6E
:1026C000B82BC32BC32BB82B2200C5170830210011
:1026D000AF002F082200B600C32B8831B6209331FB
:1026E000C32B8931D6219331C32B48302200C3003C
:1026F0000130C4004514C601C60AC517C32B873173
:102700009A279331C32B842B8E31A5269331C32B6B
:1027100020004408493E2200C3000130C400451493
:10272000C601C60AC517C32B2200C51720004208E0
:102730002100AF0020004408493E86000130870098
:1027400021002F088100C32B02302100A30000309C
:10275000A4000030A5000030A6000030A700003023
:10276000A8009031E8209331C32BC32BC32BC32B7C
:102770002000410884000D3004020318C32B983157
:102780000435003E82000800FD012200B001042C47
:102790002000911ECC2BCD2BDF2B23001908FC0031
:1027A00022003008023ECE3E8600013087007C08C1
:1027B00081000130FC007C08B007FD01DF2B0130F7
:1027C000FC007C08FD0722307D02031CE82BE92B6E
:1027D000EF2B0130FC007C082200D9072E2C2300AF
:1027E0009D1CF32BF42B042C22004D08573A031D9B
:1027F000FA2BFB2B002C0130FC007C08D407002CAA
:1028000023009D132E2C042C043022003002031CC4
:102810000A2C0B2CC82B0C2C4D08573A031D112CDD
:10282000122C2E2C3D30FC007C082300CE00220010
:102830005108FC007C082300CF00CE30F6000130A8
:10284000F700CF30F8000130F9000730FC007C08B9
:10285000FA0089313C2193312E2C2E2C23009D131C
:102860009D172700960108002200B908031D392C86
:102870003A2CA32C01302000D90059082200B900BD
:10288000BA08031D442C452CA32C01302000D9008C
:1028900059082200BA003C08023A031D502C512C62
:1028A0005E2C2000670A860087018101C830D900AC
:1028B00067088600870159088100A32C22003C0884
:1028C000013A031D642C652CA32CAA0108302000BA
:1028D000D9006C0A86008701590881004030D90070
:1028E0000030DA006C08023E860087015908C03FBC
:1028F0005A08C13F8430D9006C0886008701590806
:1029000081002200AA01AA0A08302000D9006D0A1D
:1029100086008701590881004030D9000030DA0074
:102920006D08023E860087015908C03F5A08C13F22
:102930008030D9006D088600870159088100A32CDA
:10294000A32CA32CA32C0800200067088600870175
:102950000030011B0130DE000430DC005C08E706BB
:1029600022003608083A031DB62CB72CCD2C2000C7
:1029700042083D0096001608031DBF2CC62C1030DF
:102980002000DC005C082200B600CD2C04302000C2
:10299000DC005C082200B600CD2C3C08013A031D87
:1029A000D22CD32C0B2D48302000DC000030DD0071
:1029B0006708023E860087015C08C03F5D08C13F92
:1029C0008A317522943122004208023A031DE92C13
:1029D000EA2CF32C84302000DC0067088600870195
:1029E0005C0881001D2D2000DE08031DF82CF92C49
:1029F000012DC830DC006708860087015C08810073
:102A00001D2D8830DC006708860087015C08810086
:102A10001D2D1D2D1D2D2300B21F0F2D102D1A2D24
:102A20003508031D142D182D35089531162D182D38
:102A3000B2131A2D2200BC011D2D080020302200E7
:102A40003602031C242D252DAB2D3D008E1C292D77
:102A50002A2D2C2DAB2DAB2D22003808031D312D36
:102A60003E2D380886008701010D010D0139E00077
:102A7000E1016008E4006108E500412DE401E501A1
:102A8000412D65086404031D462D472D622DA0309D
:102A90008431322495312000DD01A0302200E00095
:102AA00060082000DE0040302200E10061082000C4
:102AB000DF00013092312F2295312200E2006208BE
:102AC000B800622D4A084B060319672D682DAB2DFF
:102AD0003708031D6C2D792D370886008701010DFD
:102AE000010D0139E000E1016008E6006108E7003E
:102AF0007C2DE601E7017C2D67086604031D812D0E
:102B0000822DAB2D2000DD01DD0A0F302200E00018
:102B100060082000D90022004B089E3145269531DF
:102B2000203E2200E10061082000DE000F3022007C
:102B3000E20062082000DF00013092312F2295313F
:102B40002200E3006308B7004B08013E0339E000B0
:102B50006008CB00AB2D08002D302100B1003108FA
:102B60002200BB0020006F08FD39031DB82DB92DD0
:102B70002D2E6F0889363F392100B1000130B13563
:102B8000FF3E031DBF2D3135203EB200320820002C
:102B9000EC006C082100B10031082000ED00043089
:102BA0002100B10031082000ED066C088600870185
:102BB000010C890C0F390D3A031DDF2DE02D282E55
:102BC0002100B40108303402031CE72DE82DEA2D62
:102BD000162E162E20006C08023E86008701403F0C
:102BE0002100B100413FB200310886003208870061
:102BF0000108B3003408403E860087013308810095
:102C000020006C08023E86008701013081074131B7
:102C10000318810A01302100B1003108B4070830DF
:102C20003402031C142E152EEA2D162E4030B1004E
:102C30000030B20020006C08023E860087012100AF
:102C40003108C03F3208C13F9131322195313D2ECC
:102C50009F31CF2795313D2E3D2EFD3020006F0551
:102C60002100B1003108043A031D372E382E3D2EC5
:102C70009431A42495313D2E3D2E08003D000E12C6
:102C80002200C51B442E452E812E2300B21F492E43
:102C90004A2E5D2E02302000DE005E082200BC00BD
:102CA000B508031D542E552E592E9131822196318F
:102CB000592E2200BA01B901D02E08302000DE00C2
:102CC0006D0A860087015E0881004030DE0000301A
:102CD000DF006D08023E860087015E08C03F5F0886
:102CE000C13F8C30DE006D08860087015E088100E0
:102CF0008430DE006708860087015E088100D02EE0
:102D0000D02E2000C01F852E862EA02E2200BC01B2
:102D1000BC0AB408031D8D2E8E2E922E9131822175
:102D20009631922E2200BA01B9012000EA08031D53
:102D30009A2E9B2ED02E943134249631D02ED02E24
:102D400002302000DE005E082200BC0008302000B7
:102D5000DE006D0A860087015E0881004030DE00DB
:102D60000030DF006D08023E860087015E08C03F2C
:102D70005F08C13F8430DE006D08860087015E0871
:102D800081002200BA01B9012000EA08031DC92E02
:102D9000CA2ED02E943134249631D02ED02ED02E5F
:102DA00008008B1348302000E20062082200BE00B9
:102DB00090302000E20062082200BF00E230A8004C
:102DC0000130A90002302000E20062082200C100A8
:102DD0008B311923963120005F08213E2200A80084
:102DE00000302000603D2200A90003302000E200F6
:102DF00062082200C1008B3119239631BA302200BB
:102E0000A8000130A90005302000E200620822007D
:102E1000C1008B311923963120005F08013E22004A
:102E2000A80000302000603D2200A90008302000EA
:102E3000E20062082200C1008B3119239631B630BE
:102E40002200A8000130A900C101C10A8B31192359
:102E50009631200061082200BF002000E2006208D5
:102E60002200BE002030A8000330A900680820001E
:102E7000E20062082200C1008B3119239631D8305C
:102E800022008E008B17FD30230062052000E20037
:102E9000FF30230063052000E300FF3023006405BA
:102EA0002000E400FF30230065052000E5006508F0
:102EB0002300E500200064082300E40020006308EC
:102EC0002300E300200062082300E2000800200045
:102ED0006B082100E600E70166082000D900210008
:102EE00067082000DA002D30DB000030DC009F3165
:102EF000542797313C302100E8002330E9002000BE
:102F0000590821006807EA0020005A082100693D9D
:102F1000EB006A0886006B0887000108EC006C086B
:102F20002200D10020006B082100E600E7016608BE
:102F30002000D900210067082000DA002D30DB00D6
:102F40000030DC009F31542797313C302100E800ED
:102F50002330E90020005908210068072000DF0025
:102F60005A082100693D2000E00050302100EA00AD
:102F70006A082000E1009631D126973120006B08C5
:102F8000013E03392100E60066082000EB00220024
:102F9000D501D6014C082000950057302100E600ED
:102FA00066082200CD000130D0020319D82FD92F96
:102FB000FF2F20006B082100E600E70166082000D3
:102FC000D900210067082000DA002D30DB00003036
:102FD000DC009F31542797313C302100E80023303A
:102FE000E9002000590821006807A00020005A08C5
:102FF0002100693DA100803117209731FF2F080083
:1030000093317F2B9331842B9331C32B9331842BBA
:103010009331C32B9331642B93316D2B9331A42BBC
:103020009331752B9331712B9331882B9331942BE2
:043030009331C32BEA
:103B3E000800FE0012001E000130FE020030FF3BA6
:103B4E007F087E04031DA12D003464008001013125
:103B5E000130FE020030FF3B7F087E04031DAD2DB9
:103B6E000034D0344934003400340034003400348E
:103B7E00003400340034003400344034003421006A
:103B8E000E151D08833918389D001D149E131E082E
:103B9E008F3960389E00FC309E058F309F050800DF
:103BAE002200B00123001E169D179E131F128D12A8
:103BBE00270094178B1596018B1723001D16FF30C7
:103BCE009900080021008C1222008C169D31C6250A
:103BDE009D319E312C269D319D31FD259D319D318E
:103BEE00D7259D318C3175249D3108002100951209
:103BFE0095110730950422004C08200095002100F5
:103C0E008E130E130E128E11D83022008E0021004C
:103C1E000C1222000C160800F200F301162E721C74
:103C2E00192E1A2E1F2E7008F1007108F3071F2E81
:103C3E000310F00D0310F20CF208031D272E282E90
:103C4E00162E292E73082B2E080021008E162C00FE
:103C5E009301FF3020009B00C0302C009300E63013
:103C6E0092009101200091101C08FC3901389C0033
:103C7E001C1521008E122C00131708002000DC00EA
:103C8E00DB01492E5C1C4C2E4D2E522E5908DA00AB
:103C9E005A08DB07522E0310D90D0310DC0CDC087A
:103CAE00031D5A2E5B2E492E5C2E5B085E2E0800DD
:103CBE0098342F348A344234913444343734713446
:103CCE00CF34FB34C034B5340734003403340434F9
:103CDE007234013400340034003401343C34503436
:103CEE00E63400342200B30174302100A30000300A
:103CFE00A4000030A5000030A6000030A700003060
:103D0E00A8009031E8209E313D008E101211FB303C
:103D1E002000E60066083D009005080023008C0197
:103D2E008D0104308E0021009801FC3099009030F6
:103D3E0027009B002200B801B7010030CB00200005
:103D4E00E30063082200CA009D31E9259E318D31C2
:103D5E00E3259E3108003D001215EF302000E600ED
:103D6E0066083D0090058E142200B301B30A75302B
:103D7E002100A3000030A4000030A5000030A600F2
:103D8E000030A7000030A8009031E8209E310800D6
:103D9E009E3195269E31863138269E310B1DD82EAA
:103DAE00D92EDD2E9131D8219E31DD2E22004D08E7
:103DBE00503A031DE32EE42EE72E973167279E31EE
:103DCE0095311E259E31D22ED22E803115280034EB
:103DDE000034003400340034003400344034AA344B
:103DEE00AA34AA342A3400340034003420349934EE
:103DFE009934993419345534553455341534923424
:103E0E0024344934123400340034003410341E305B
:103E1E002100A00020082000E00001309F31A327E0
:103E2E009F312000DD01A0302100A00020082000DD
:103E3E00DE0040302100A10021082000DF0001300B
:103E4E0092312F229F312100A20022082200B800B9
:103E5E000800F401F501332F701C362F372F3B2F3E
:103E6E007208F4077308F53D0130F235F30D890B36
:103E7E003C2F0130F136F00C890B412F7108700484
:103E8E00031D4A2F4B2F332F4C2F7508F101F107CD
:103E9E007408F001F007532F08002000DD01DE0149
:103EAE00582F591C5B2F5C2F602F5B08DD075C08B9
:103EBE00DE3D0130DB35DC0D890B612F0130DA364A
:103ECE00D90C890B662F5A085904031D6F2F702FBA
:103EDE00582F712F5E08DA01DA075D08D901D9076C
:103EEE00782F08003D00181C7D2F7E2F9C2F200060
:103EFE006C08860087010108803A031D872F882FE2
:103F0E00992F6708860087010108843A031D902FB8
:103F1E00912F992F8C30D9006C0886008701590893
:103F2E008100992F3D0018109C2FDF302000D90002
:103F3E0059083D00900508002000E500601DA82FDF
:103F4E00A92FAF2FD901650890315D209F31AF2F7A
:103F5E002000E01CB32FB42FBB2FD901D90A65085E
:103F6E0090315D209F31BB2F20006508983EE10007
:103F7E00E2010E30E23D6108E3006208E4006008F1
:103F8E00E10063088600640887006108810008006C
:103F9E0022003C08023A031DD52FD62FDA2F8D3181
:103FAE0026259F31FF2FBC01AA08031DDF2FE02F0E
:103FBE00FC2F08302000DF006D0A860087015F08A5
:103FCE0081004030DF000030E0006D08023E8600C8
:103FDE0087015F08C03F6008C13F8C30DF006D086D
:103FEE00860087015F088100FF2FAA01FF2FFF2F98
:023FFE000800B9
:020000040001F9
:04000E0084CFCFDFED
:00000001FF
