:0400000080313A28E9
:1000080080312000911E0B288531D12580310B1DB0
:1000180010289531E72580312000911F1628873157
:10002800F12780312000921D1D289211E030220016
:10003800E8052000911D372891112200E81E282884
:1000480096316C268031372868081F392000EF0068
:100058000A306F0203183428863140268031372849
:100068009331D123803181317621090088312828C4
:100078002200E201D001CE01CF01C501DA013D081D
:100088008600043087018113BD063D0886000430D0
:100098008113BD0621006F08860081132200E50147
:1000A800E601E701B301B401B501662080310330F0
:1000B8002000E000E101E201E301E401E501122290
:1000C8008431772C2000500E890C0339031D080059
:1000D800510884000D3004020318080091310435DA
:1000E800663E820008002200E5170830D1000800AB
:1000F8009431932C9431F52C69302200E3000130BF
:10010800E4006514E600E51708009431012CA228E4
:100118005408CF3E81282200E51720005408CF3E1E
:100128008600013087005208810008000230E00094
:10013800E101E201E301E401E501122A2000520B8A
:10014800B62850081F39031DB6282200E5172000DD
:100158005108033A031DB42801302200CB00B62809
:100168002200CB0120005208031D080050081F3947
:10017800023A031D080054080F39031908005408EF
:100188000F39FA0003307A020318080022005108D8
:10019800203A031D0800E5172000D41BDF28540867
:1001A8000F39403E8600013087000108E9005408F5
:1001B8000F393A3EEA2854080F393D3E860001308F
:1001C80087000108E90054080F39373E8600010806
:1001D800E8006818F1286911F2286915D41BF82875
:1001E80054080F39403EFB2854080F393D3E86001D
:1001F80001308700690881005108033A031D1C2952
:10020800690886008701811F1629D41B0F29540805
:100218000F393A3E122954080F39373E860001300B
:1002280087008114690886008430870181040800EA
:100238000430E9066908860087016908811F3429A6
:1002480086008113860005300117E000E101690886
:10025800E200E301E401E40AE501122280313729D2
:1002680086008701011704302000E906E8184129B3
:10027800690886008701811F5F29D41B4729540814
:100288000F393A3E4A2954080F39373E8600013063
:1002980087008110690886003B3087018105053099
:1002A800E000E1016908E200E301E401E40AE50194
:1002B800122280316429690886003B308701810554
:1002C800200054080F39983EFA000E30FB01FB3D20
:1002D8007A08E6007B08E70066088600670887005A
:1002E8000110080022005103031D83293D008E1AC6
:1002F800832990011214121602302200D1003D0009
:100308001019121D8A291011682380318E1C8F291B
:100318002000121108001018121C9B29422280315B
:100328002100121504302200D1003D001010101ACF
:10033800121EA2295C2380313D001012101FBC2917
:10034800121FB12973302000E000E101E201E3014E
:10035800E401E40AE501122280313D001013220075
:100368005408031DD403D408031DBC29B4228031CA
:100378003D00901A921EC229442380319018921C85
:10038800D329FF302000E0007F30E100E201E301E3
:10039800E401E40AE501122280313D0093010430B2
:1003A80022005102031C8C293D00921D8C2920003B
:1003B800EE013D00901D8C290F082200EA006A0C0E
:1003C8002000ED00ED0C6D0C0F392200DB003D0024
:1003D800901122006A19F3295B083A3EF5295B0857
:1003E800373E8600013087008106DB08031DFF29A0
:1003F800EC2280310B2A72302000E0006A30E101E3
:10040800E2000130E300E401E5011222803120001E
:100418000430EE0A6E0203188C29DD296108003ABF
:100428000319222A7F3A03193C2A412A192C1B2C2A
:100438001A2C772B152C9431432C182C6008013A70
:1004480003191D2A033A03191E2A013A03191F2A00
:10045800063A0319412A773A0319412A013A03193E
:100468001A2A073A03191C2A013A03191B2A412A96
:100478006008FF3A0319212A412A080021001211B5
:100488003D009301900198010E30F3009930F2007D
:10049800F40172088600730887008101F20A0319C3
:1004A800F30A0230F40A7402031C4D2A1630910034
:1004B8009F3097007B309200F501750809070907FE
:1004C800203E860000308701C03FC13FC23FC33F86
:1004D8000C30F50A7502031C612A0E1796010E12DC
:1004E8000E133D00901D7F2A90112200E501B301F3
:1004F800B401B501752A01302200D200D300CE0123
:10050800CF012300AE01F50175083D3E860001309C
:10051800870081017508403E860081017508373ED5
:100528008600810175083A3E860003308101F50A8C
:100538007502031C882A28302200BD0016303D00B1
:1005480098005030F000F1012000A2007108A300CB
:100558000830A1008430A0002200E901D101080080
:100568002200D208031D08000130D200D308031D61
:100578000800D3005A08023A031DC92A3D0A86001A
:10058800870181013D088531CD2D5A0B0800C50131
:100598005E0A86000830870181005030F000F101C2
:1005A8005E081C2480315E0886008430810001309A
:1005B800C50021006F0A8600083081005030F00025
:1005C800F1016F081C246F08860080308100080044
:1005D8002D30D4006A08FD39031D3B2B6A363F399C
:1005E80009070907203EDE002100EF000430EF066E
:1005F80022005E0886008701010C890C0F390D3A2C
:10060800031D392B2000EC016C08503E8600870141
:1006180022005E08023E84008501003F2000EA00B7
:10062800013FEB006A0884006B0885000008810020
:1006380022005E08023E860001308107413103181E
:10064800810A20000830EC0A6C02031C082B503089
:10065800EA00EB0122005E08023E860087012000C6
:100668006A08C03F6B08C13F3C288531392DFD30F1
:100678006A052000EA00043A031D08008431292C89
:10068800181C5A2B22005E08860087010108803A50
:10069800031D582B3D0886000108843A031D582B7A
:1006A8005E0886008C3081003D001810901208000A
:1006B800121510128E1401302300AE007530200080
:1006C800E00023248031122A2300AE017430200078
:1006D800E00000302324803112223D008E101211D8
:1006E80010110800772B22004B30A301A201A100B2
:1006F8000830A001A401A501A6001A30D701F40012
:100708000130972380311E30F40002309723803166
:10071800A030F001F1004030F2000230DD23C700C4
:10072800C601D8010800F900741D9D2BF001B623FD
:100738008031F41CA32BF001F00A7908B62379085C
:10074800983EF5000E30F601F63D7508F70076087C
:10075800F8007408F500770886007808870075089F
:1007680081000800F2002030F3007008F100F13534
:10077800720809070907710709070907F3077308CA
:10078800860087018113F008031DCD2B7208403EB7
:10079800CF2B72083D3E8600013087007308810028
:1007A80073088600870101137308043E8600011749
:1007B8000800F50070080319E42B75083D3EE62B88
:1007C8007508403E8600013087000108F600F608EB
:1007D800031900347108F3000230F4007608023E71
:1007E800860087017308C03F7408C13F760A8600F7
:1007F80072088100760886004030810576088600F8
:1008080088308104700803190C2C75083D3E0E2CA5
:100818007508403E8600013087000430810676085E
:10082800080008009431432C08000800080008005C
:10083800023E86007008C03F7108C13F0800E10110
:10084800E201E301E401E501080022003D08860019
:1008580000308701011B0130F5000430BD06510846
:10086800083A031D432C200052083D009600160844
:100878000319402C1030412C04302200D1005A0BAF
:100888006B2C5830F300F4013D08023E86008701C6
:100898007308C03F7408C13FE22484316208023AF9
:1008A800031D5C2C3D088600843087018100080008
:1008B800F508031D652C3D088600C83087018100B6
:1008C80008003D0886008830870181000800B31FB2
:1008D800752C36080319732C36088431722C2200C3
:1008E800B313DA0108003D000E122200E51B912C1B
:1008F800B31F882C0230DA00CF08031D842CAC24E7
:100908002200D301D201080017258C308100220073
:100918003D0886008430810008002000D01FA42CE8
:1009280001302200DA00CE08031D9C2CAC2484314F
:100938002200D301D201D008031D08008231B42A55
:1009480002302200DA0017258431843081009C2C83
:10095800CE01CF015A08023A031DC12C2100BD2542
:1009680084315830F300F4016F08023E86007308A2
:10097800C03F7408C13F6F08CD2D6708200057029B
:10098800031DCA2C22006608200056020318D32C27
:1009980057082200E700200056082200E600E2245B
:1009A80084315830F300F4013D08023E8600870187
:1009B8007308C03F7408C13F3D08CD2D0830F200D0
:1009C8000030220067020830031966020318F72C6A
:1009D8006608F200E208031DF32C0130F62C620BC6
:1009E800F72C0230E2006708F10072086602F00096
:1009F800031CF103E6007108E7003D0A8600870141
:100A0800720881005830DF00651C0D2D132D2A2532
:100A18008431F208031908000B2D2A258431F208C5
:100A280003190800112D21006F0A8600083087017C
:100A380081005030F500F6016F08023E8600750807
:100A4800C03F7608C13F6F08860008005F0886002F
:100A58008701630884006408850000088100E30AB0
:100A68000319E40ADF0AF20308005A08023A031DD0
:100A78003E2D562DDA01C508031D542D2100BD2534
:100A880084315030F600F7016F08023E8600760880
:100A9800C03F7708C13F6F0886008C30810008008E
:100AA800C50108005E0886008701413FF500F20095
:100AB800F30173083502031D632D7208340203180D
:100AC800672D3408F5003508F30075083402F20084
:100AD800031CF303B4007308B500F401750874022D
:100AE8000318872D7408583E860087010108F20014
:100AF800310886003208870072088100B10A03199C
:100B0800B20AF40A722D0330313E860001308700A4
:100B1800160001040319A52D2100BD258431583084
:100B2800C325843122005E088600011B9E2D21000A
:100B38006F08CD2D21006F0886008830870181005D
:100B480008002100BD2584315030C32584316F0849
:100B5800860084308100220036080319B62D360835
:100B68008531B52D2200B313D008031D080082314A
:100B7800B42A6F0A86000830870181000800F20055
:100B8800F3016F08023E86007208C03F7308C13F38
:100B980008008600C830810008008B1391122200DB
:100BA8004C082000E700FC30E70522004C08A03E76
:100BB80086000130870023001908810022000730D1
:100BC800CC0ACC0523009D1CEE2DDC0A0319DD0A96
:100BD8001D121D1622004C080339031D292E3D3015
:100BE8002000E00022004D082000E1002200550806
:100BF800F0002D30F101F200F3012B2685313C3055
:100C0800FA002330FB0070087A07860071087B3DE4
:100C1800870001082000E2006708A03E8600013036
:100C280087000108E30031278531E4003127853149
:100C3800E50031278531E6006030F2006230F301CB
:100C4800F4000430F501F600E1268B170800F401E2
:100C5800F501701C332E7208F4077308F53DF23560
:100C6800F30DF136F00C71087004031D2D2E750874
:100C7800F1007408F00008002400141ED12EE030A2
:100C88002200E805D12E2400910122002727E00147
:100C980008002400161F522E1615080022004908C5
:100CA800240091002200272708002400161B502E3C
:100CB80022002727853124009615220027270800BF
:100CC800CA08031D7B2E240011083D3A031D6E2E11
:100CD8000730792E1108493A031D742E0F30792EEA
:100CE8001108433A03196C2E0D302200CA0060081F
:100CF800603E86000230870024001108810022002F
:100D0800E00A4A03003003190130FA00FA0EFA0D1E
:100D1800240016087A06DF397A0696002200CA03EC
:100D28002400161622004A080319A42E68081F3941
:100D3800FA00FA0368087A06E0397A06E80008003B
:100D48004908503A031D562E6808E0390938E8006A
:100D580008000230D33E860001308700403F013E44
:100D6800C03F542E24001615562E240016142200B7
:100D78006808E0390138E80008006030F200023005
:100D8800F3006230F4000230F5006008FD3EF60022
:100D9800E126E0302200E8050800220068081F3933
:100DA800FF3E031C080084000A30040203180800F0
:100DB80091310435803E820008007208860073086D
:100DC800870001082700A00022004D082700A10085
:100DD800F901760879020318052F7908A23E8600E2
:100DE800033087007508F8007408F700790877075A
:100DF800840078080318780A850000088100F90A39
:100E0800ED2E2200D108031D0D2F7608023ECA00E0
:100E180008007608023EF000A03013270800F10011
:100E2800210012112200D808031D242F7108230065
:100E3800AA0070082200D900D601D60AD801D80A1B
:100E480021001215080068081F39FA00FA0A680814
:100E58007A06E0397A06E8000800E70A6708A03E43
:100E68008600010808002100121122004608031913
:100E7800462F460886008701010D010D0139210022
:100E8800A700482F2100A701A80128082704031953
:100E9800502F21001215080022005808033A0319A0
:100EA800D801D80803194D2F5808023A031D692F95
:100EB80021000230A001A00AA101A201A9278731BF
:100EC8002200C6000330D8004D2F580B4D2F41305B
:100ED8005902031C712F4030722F59082100AA00B3
:100EE8002200D90220302300A80021002A08A900E6
:100EF8002200D6080319832F8A2FE1278731210082
:100F0800A90803198E2F812FE12787312100A9080D
:100F1800031D882F2200D908031D9C2F21002A08B1
:100F2800403A031D992F02309A2F03302200D8002F
:100F380021002030A001A00AA1002A08A200023046
:100F4800A92787312200C6004D2FA50020080319C4
:100F5800B02F25083D3EB22F2508403E86000130BF
:100F680087000108A600A608031900342108A30079
:100F78000230A4002608023E860087012308C03FED
:100F88002408C13F260A8600220881002608860018
:100F9800403081052608860088308104200803191E
:100FA800D82F25083D3EDA2F2508403E860001301F
:100FB80087000430810626080800230028088600D8
:100FC800023087002A088400033085000008810069
:100FD800A80AAA0A2100A9030800111091132700E2
:100FE80093112000181017082300D90022008E1230
:060FF8002C001317080095
:101004006400800101310130FE020030FF3B7F08A3
:101014007E040319003403288934413449340034EC
:10102400003400340034003400340034003400341C
:10103400003403340034D03408340434003400342D
:101044002E34343402343C34503480343C30840004
:1010540023308500B430FE000030FF0188310220C7
:10106400883121003130EF018400013085003A30AD
:10107400FE000030FF00883102208831A030840057
:10108400013085003130FE000030FF00883102203D
:10109400883160308400023085001030FE0000305A
:1010A400FF0088310220883120308400033085001D
:1010B4002030FE000030FF00883102208831A0304B
:1010C4008400033085004030FE000030FF0088318A
:1010D4000220883120308400043085004030FE0036
:1010E4000030FF008831022088312200D630EF0022
:1010F4000E30840088308500D130860001308700AE
:101104000030FF001A309331C523883120008A282B
:101114004A2788312200D108031D92287F2788316D
:10112400D108031D9A28E81A9E286B2788319E2827
:10113400681B9E285927883123005308503A031D01
:10114400A528A8208831102288318C28220055082F
:101154002100A0002D30A101A200A301FF208831AD
:101164003C30E7002330E8002008670786002108A8
:10117400683D870001082300D7003C302100A60009
:101184002330A700220055082100A0002D30A10122
:10119400A200A301FF2088312008E7002108E8000D
:1011A4006708A6076808A73D5030A80014218831B5
:1011B4002300DA01DB015730D30022006F0820003E
:1011C400950023005608031908003C302100B000A4
:1011D4002330B100220055082100A0002D30A101C8
:1011E400A200A301FF2088312008E7002108E800BD
:1011F4006708B0076808B13DBB2BA401A501201CFA
:1012040007292208A4072308A53DA235A30DA1366A
:10121400A00C21082004031D01292508A10024088D
:10122400A00008008B1348302200DC009030DD0061
:10123400DE30C3000130C4000230E1006121883196
:10124400210027082200C400210026082200C30030
:101254002130C3070318C40A0330E1006121883137
:10126400AF30C3000130C4000530E1006121883192
:10127400210027082200C400210026082200C30000
:10128400C30A0319C40A0830E10061218831C3305C
:10129400C3000130C400E101E10A61218831210069
:1012A40028082200DD00DC002030C3000330C40025
:1012B40023006B082200E10061218B170800220043
:1012C400430886004408870048308E010118903096
:1012D4008E0048308E01811890308E0048308E0187
:1012E400011990308E0048308E01811990308E00A3
:1012F40048308E01011A90308E0048308E01811AD8
:1013040090308E0048308E01011B90308E004830A2
:101314008E01811B90308E00413148308E010118BE
:1013240090308E0048308E01811890308E00483005
:101334008E01011990308E0048308E018119903051
:101344008E0048308E01011A90308E0048308E0194
:10135400811A90308E0048308E01011B90308E002F
:1013640048308E01811B90308E00413148308E010F
:10137400011890308E0048308E01811890308E0014
:1013840048308E01011990308E0048308E01811949
:1013940090308E0048308E01011A90308E00483013
:1013A4008E01811A90308E0048308E01011B9030DE
:1013B4008E0048308E01811B90308E0041314830C0
:1013C4008E01011890308E0048308E0181189030C3
:1013D4008E0048308E01011990308E0048308E0105
:1013E400811990308E0048308E01011A90308E00A1
:1013F40048308E01811A90308E0048308E01011BD6
:1014040090308E005C088E01811B5D088E00413196
:10141400E10B6629D83022008E0008002200D10892
:10142400031D1C2A4A080319372A2030392288311F
:10143400CA01372AD808031D372A40302100A700E3
:101444002030FE2688312100EE006E080319372A69
:10145400280021080319352A21006E08A000203035
:10146400E9268831372A203039228731372F210065
:10147400ED00682B0330230056020318892A21004B
:101484006D08023E860004308700220055082100C2
:10149400A000A101230056082100A0070318A10AF7
:1014A4000330A0052D30A101A200A301FF20883143
:1014B4003C30E9002330EA00200869078400210851
:1014C4006A3D85002D30FF0016001A00FF0B662AC6
:1014D4002300D60A560B892A3C302100B000233061
:1014E400B100220055082100A0002D30A101A20066
:1014F400A301FF2088312008E9002108EA006908D7
:10150400B0076A08B13DBB238831A8208831210087
:101514006D08A2000430A300D330A4000130A5005C
:101524000B30A60086238831832B2200D5012300AB
:10153400D60121006D08023E860004308700220097
:1015440055082100A000A101230056082100A0078E
:101554000318A10A0330A0052D30A101A200A301A4
:10156400FF2088313C30E9002330EA002008690775
:10157400840021086A3D85002D30FF0016001A0002
:10158400FF0BC02A2300D60A6E2A6D08A20004307D
:10159400A3005530A4009130A5000D30A600862389
:1015A4008831832B6D08023E8600043087000108D1
:1015B400003A0319292B6D08023E8600E6308400A8
:1015C400013085000530FF0016001A00FF0BE62AE3
:1015D400013023006702F430031966020318F62A67
:1015E400F430E6000130E700033067028530031968
:1015F4006602031C012B8430E6000330E700660812
:10160400DE006708DF001230E001E101DE35DF0DA6
:10161400E00DE10D890B082B0330DE040030DF04FC
:10162400E004E10467082100A1002300660821000A
:10163400A000C030A2005D30A300C4268831200879
:10164400003C2200EF0023006A082C0092002100D5
:101654006D08A2000430A300E630A4000130A50008
:101664000530A60086238831832B6D08023E860050
:10167400043087000108313A003003190130E900D1
:10168400E90E22000C0821006906EF3969062200E0
:101694008C0021006D08023E86000108313A0319CE
:1016A400552B4430562B5230EB00EC012300D30071
:1016B400892A6D08A2000430A3006830A400013018
:1016C400A500A601A60A86238831832B6D0886000F
:1016D400043087000108413A0319972A023A031992
:1016E400D42A063A0319372B0C3A0319C72A1A3A93
:1016F4000319892A043A03193C2A0D3A03195B2B6E
:10170400832B22008C1608002208860023088700F9
:1017140001082700A00022004D082700A100210095
:10172400A901260829020318AB2B2908A23E86002A
:10173400033087002508A8002408A70029082707E4
:10174400840028080318280A850000088100A90AD3
:10175400932B2200D108031DB52B21002608023E3D
:101764002200CA00080021002608023EA000A03082
:10177400E12FE6016608B200B301B235B30DB2350C
:10178400B30D32083007B4003308313DB5000130E1
:101794003407840035080318350A8500003FB60075
:1017A400013FB700023FB800033FB90066080907CC
:1017B4000907BE3E860087013608C03F3708C13F8F
:1017C4003808C23F3908C33F0830E60A6602031CE2
:1017D400BC2BE601FC30A000660883268831183E45
:1017E400BE3E86008701403FB200413FB300423F06
:1017F400B400433FB500FC30A0006608832688315E
:10180400143EBE3E86008701403FB600413FB7000C
:10181400423FB800433FB90032083606E2003308BD
:101824003706E30034083806E40035083906E500D5
:10183400FC30A000660883268831103EBE3E860038
:101844008701403FB200413FB300423FB400433FF1
:10185400B5003208E2053308E3053408E405350829
:10186400E505FC30A000660883268831183EBE3E9C
:1018740086008701403FB200413FB300423FB400BD
:10188400433FB5003208E2063308E3063408E406B1
:101894003508E5066608B2002130B301B235B30D50
:1018A400B235B30DB4009030B50032083407860069
:1018B4003308353D8700403FE207413FE33D423F67
:1018C400E43D433FE53D6608B200B301B235B30DD4
:1018D400B235B30D32083007B4003308313DB500DA
:1018E4003408213E86000030353D8700403FE20742
:1018F400413FE33D423FE43D433FE53DFC30A00032
:101904006608832688311C3EBE3E86008701403F20
:10191400E207413FE33D423FE43D433FE53DFC30C8
:10192400A000660883268831103EBE3E86008701EB
:10193400403FA300413FA400423FA500433FA6000F
:101944001A30A7008F2688312608E1002508E00018
:101954002408DF002308DE00FC30A000660883268C
:101964008831103EBE3E86008701403FA300413FC0
:10197400A400423FA500433FA6001530A7008F26D0
:1019840088312608BD002508BC002408BB002308B4
:10199400BA005E08BA065F08BB066008BC066108A8
:1019A400BD06FC30A000660883268831103EBE3E8A
:1019B40086008701403FA300413FA400423FA500A9
:1019C400433FA6000730A7008F2688312608E10090
:1019D4002508E0002408DF002308DE00BA065F08BB
:1019E400BB066008BC066108BD063A086207B2007F
:1019F4003B08633DB3003C08643DB4003D08653DCD
:101A0400B500FC30A0006608832688311C3EBE3E2B
:101A1400860087013208C03F3308C13F3408C23F03
:101A24003508C33FFC30A0006608832688311C3E7D
:101A3400BE3E86008701403FB200413FB300423FB3
:101A4400B400433FB500FC30A0006608832688310B
:101A54000C3EBE3E86008701403FB207413FB33D86
:101A6400423FB43D433FB53DFC30A00066088326A9
:101A740088310C3EBE3E860087013208C03F3308E1
:101A8400C13F3408C23F3508C33F6608003C0739EC
:101A940009070907BE3E8600403FA300413FA4005A
:101AA400423FA500433FA6001E30A7008F26883181
:101AB4002608E5002508E4002408E3002308E200E2
:101AC4006608003C073909070907BE3E86008701FE
:101AD400403FA300413FA400423FA500433FA6006E
:101AE4001330A7008F2688312608E1002508E0007E
:101AF4002408DF002308DE006208DE066308DF0630
:101B04006408E0066508E1066608003C0739090731
:101B14000907BE3E86008701403FA300413FA40061
:101B2400423FA500433FA6000A30A7008F26883114
:101B34002608E5002508E4002408E3002308E20061
:101B4400DE066308DF066408E0066508E106660849
:101B5400013C073909070907BE3E86008701403F5B
:101B6400B200413FB300423FB400433FB5006608B2
:101B7400003C073909070907BE3E8600403FB6000E
:101B8400413FB700423FB800433FB9003208360432
:101B9400E20033083704E30034083804E40035086D
:101BA4003904E5006608023C073909070907BE3E07
:101BB4008600403FB200413FB300423FB400433F80
:101BC400B5003208E2053308E3053408E4053508B6
:101BD400E5056608013C073909070907BE3E86008A
:101BE400403FB200413FB300423FB400433FB50021
:101BF4006608003C073909070907BE3E8600403FD6
:101C0400B600413FB700423FB800433FB900320835
:101C14003605BA0033083705BB0034083805BC0064
:101C240035083905BD003A08E2043B08E3043C08E2
:101C3400E4043D08E5045E086207B2005F08633D02
:101C4400B3006008643DB4006108653DB500FC3034
:101C5400A0006608832688311C3EBE3E86008701AC
:101C64003208810741313308813D41313408813DD7
:101C740041313508813DFC30A00066088326883157
:101C84001C3EBE3E86008701403FB200413FB30088
:101C9400423FB400433FB500660809070907AF3E59
:101CA4008600013087003208C03F3308C13F340842
:101CB400C23F3508C33FFC30A00066088326883144
:101CC4000C3EBE3E86008701403FB200413FB30058
:101CD400423FB400433FB500660809070907B73E11
:101CE4008600013087003208C03F3308C13F340802
:101CF400C23F3508C33F0330E60A660203180800F2
:101D0400EC2BA200A10120082218A107A035A236BD
:101D1400A208031D852E210808002308A800240812
:101D2400A9002508AA002608AB002708203C890A38
:101D3400A02E0310AB0CAA0CA90CA80CFF3E031D8B
:101D44009B2E2308AC002408AD002508AE0026080D
:101D5400AF00270AB12EAC35AD0DAE0DAF0D890B1A
:101D6400AD2E2C08A8042D08A9042E08AA042F08B7
:101D7400AB042B08A6002A08A5002908A4002808FB
:101D8400A3000800A501A601210820040319E42EDC
:101D9400A401A40AA11BD12EA035A10DCB2EA535DB
:101DA400A60D21082302031DD92E20082202031C9C
:101DB400E02E2008A2022108A33B2514A136A00C82
:101DC400A40BD12E2608A1002508A0000800A1001C
:101DD4002108860004308700423F2200C800210009
:101DE40021082300AC00210020082200CA00680852
:101DF400E0390A389631682EA9002200D701470835
:101E040003190D2F470886008701010D010D0139C3
:101E14002100AA000F2F2100AA01AB012B082A04DC
:101E2400031D472F2200470A860087012100270847
:101E340001020318232F220047088600413F210096
:101E4400A7002200D7012100270822005702031807
:101E54003C2F570821002907A8008600043087007A
:101E640022005708A03E840002308500000881004B
:101E7400D70A252F2100A030A001A1004030A200E4
:101E840002308731A9272200C70022005708080022
:101E940023008C018D0104308E0021009801FC3058
:101EA4009900903027009B00982795316D2D681775
:101EB400E812CD0121000D160D1777302400920091
:101EC4001508F039083895009417951620009115D7
:101ED400F62FE81668134D082400920021000D1611
:101EE4000D1724001508F0390638950096171715B4
:101EF40094179516200091150800D108031D0800B9
:101F04003D008E019201163091009F3097007B3086
:101F14009200210012150B178B173D008E19942F78
:101F24008E158F2F01302200D100080021008C1261
:101F340022008C16A3278831B4278831CF27973104
:101F4400122F21000E151D08833918389D001D1409
:101F54009E131E088F3960389E00FC309E058F301A
:101F64009F0508008E162C009301FF3020009B0073
:101F7400C0302C0093008030920091012000911019
:101F8400FC309C051C1521008E122C001317220016
:101F94009D152700921593110800210095129511A3
:101FA4000730950422006F082000950021008E134D
:101FB4000E130E128E11D83022008E000800A100DC
:101FC40012112200D808031DF32F21002108230039
:101FD400AA00210020082200D900D601D60AD8017F
:101FE400D80A2100121508003F302200C90004302D
:101FF400CA006808E03901389631682E003400348C
:102004000034003400340034003400344034AA3442
:10201400AA34AA342A3400340034003420349934E5
:10202400993499341934553455345534153492341B
:1020340024344934123400340034003410349834D5
:102044002F348A3442349134443437347134CF34A5
:10205400FB34C034B534623491347A349034AE34C1
:102064009034E234903437349034093402344334B5
:102074000034023401340034C034323409340434BA
:1020840000340034013402340234013400340534A1
:10209400243400341034013404342434023402343B
:1020A4000534243406340034013405342434013432
:1020B40000340134073405348134033408340034E3
:1020C4000234093404340134003402340A34003450
:1020D400003400340734053402340234403400340C
:1020E400003407340534823402344034003400347C
:1020F400343403344B3400346C3400346F340034DF
:102104006E34003464340034693400346B34003485
:1021140065340034203400345034003472340034D4
:102124006F3400346A34003465340034633400346A
:102134007434003400340034003400340034003487
:1021440000340034003400340034003400340034EB
:102154000034003400340034343403344B34003459
:102164003134003436340034003400340034003464
:1021740000340034003400340034003400340034BB
:1021840000340034003400340034003400340034AB
:10219400003400340034003400340034003400349B
:1021A400003400340034003400340034003400348B
:1021B400003400340034003400340034003400347B
:1021C400343403344434003445340034413400346A
:1021D400443400344234003445340034453400344B
:1021E4004634003400340034003400340034003405
:1021F400003400340034003400340034003400343B
:10220400003400340034003400340034003400342A
:10221400003400340034003400340034003400341A
:102224000034003400340034FF34693400340034A2
:102234000034693400340034003469340034003428
:102244000034693400340034003469340034003418
:102254000034693400340034003469340034003408
:1022640000346934003400340034693400340034F8
:1022740000346934003400340034693400340034E8
:102284000034123401340034023402340034003493
:102294000834D83404340A34F634003401340134B4
:1022A4000234033401341034EF34BE34AD34DE343C
:1022B4004B343134363400340034003400340034C8
:1022C40004340334093404348031892880318B2860
:1022D4008031762880318B288031762880317728A8
:1022E40080317C2880319A288031802880317E2872
:1022F40080318C2880318F28803176288631472E92
:1023040086314D2E8631592E86315F2E8631642ECC
:102314008631AD2E8631B62E8631B92E8631B62E53
:102324008631C12E96317D2E9631842E9631A82E7B
:102334009631B22E9631CD2E9631D92E9631DE2E8F
:042344009631E22EBE
:10278A00FE0012001E000130FE020030FF3B7F08EF
:10279A007E0403190034C62BF32B48082400910049
:1027AA002200E00168081F39F000F00A6808700684
:1027BA00E0397006E8000800600823002C07F000E2
:1027CA008600043087000108240091002200E00AF4
:1027DA00CA0B0800D72B2400161508002200680827
:1027EA001F390A3A0319D22B013A0319E12B073A86
:1027FA000319F02B002C08002000D801D9012E2C37
:10280A002200E5172000581422004B0B392C200017
:10281A00D814392C2200E517392C2200E51720009C
:10282A00D41B1B2C54080F39403E1E2C54080F3958
:10283A003D3E8600013087000108F00086008701CE
:10284A00811F392C70088600011D392C0130D800EF
:10285A00392C50081F390319052C013A03190F2C7A
:10286A00033A0319122C392C2200E51F08005830AC
:10287A00E300E40165140230E600080050081F393D
:10288A00013A031D0800500E890C0339013A031D51
:10289A000800540803197B2C5403031D08007B2CE1
:1028AA008D240830E600E70165142200E5170800C8
:1028BA008D2494315A2C57082200B500200056085E
:1028CA002200B4002030B1000130B200B601B317C3
:1028DA00080020302200E3000130E4000730E6005F
:1028EA00E701C130E500080052085A2C5108003AA5
:1028FA000319552C013A03195D2C213A0319602C4E
:10290A00013A03196E2C033A0319792C8C2C08000E
:10291A00C7302200E3000130E4000800200050081C
:10292A00803A031D0800C0302200E500D32C433052
:10293A002200E3009130E4001230E600E7010800CB
:10294A005208F0003530EF2494319030E02494316D
:10295A006408F1006308F000023EE8249431E600BE
:10296A006408F1006308F000033EE824E700080069
:10297A00043052020318D02C5208F0002D30EF24F4
:10298A0094319030E02463088400640885000008CC
:10299A00E600E70108002200E501080020005308CC
:1029AA00013A03199C2C033A0319A52C013A03197D
:1029BA00BD2CD02C0800713D8500003F2200E300A9
:1029CA00013FE4000800840071080318710A8500B9
:1029DA0000080800F101F035F10D700784000800C5
:1029EA002200E5170E30FB009930FA00FC017A0844
:1029FA0086007B0887008101FA0A0319FB0A023064
:102A0A00FC0A7C02031CFC2C2030F0003030F1015F
:102A1A00F201F301F400F501542594313D000E173B
:102A2A00FD017D08373E86000130870081017D085F
:102A3A003A3E860003308101FD0A7D02031C162DF1
:102A4A00CF30F0000130F1000230F201F301F4005E
:102A5A00F501542594313D000E1328302200BD00A3
:102A6A002030DE002100EF00200052082200E90099
:102A7A00E908031D432D1030D100080020006930F9
:102A8A00E001E00AE101E2000130E300E401E40AC6
:102A9A00E5018231122220302200D100080071089B
:102AAA00F8007008F7000130F4020030F53B740AB0
:102ABA000319750A031908007208F60077088600D8
:102ACA007808870076088100F70A0319F80A582D52
:102ADA00210012113D009301900198010E3021004E
:102AEA00A3009930A200A4012208860023088700C7
:102AFA008101A20A0319A30A0230A40A2402031CB0
:102B0A00792D16303D0091009F3097007B3092005E
:102B1A002100A501250809070907203E8600003083
:102B2A008701C03FC13FC23FC33F0C30A50A2502FF
:102B3A00031C8F2D3D000E1796010E120E133D0039
:102B4A00901DAE2D90112200E501B301B401B5012B
:102B5A00A42D01302200D200D300CE01CF012300E0
:102B6A00AE012100A50125083D3E860001308700FF
:102B7A0081012508403E860081012508373E8600EE
:102B8A00810125083A3E860003308101A50A250203
:102B9A00031CB82D28302200BD0016303D009800D5
:102BAA0050302100A000A1012000A200210021082C
:102BBA002000A3000830A1008430A0002200E9010F
:102BCA00D10108000B1123005308573A031D0C2E9C
:102BDA00DA30860001308700810741310318810A03
:102BEA007F31403F5106031DFC2D413F5206031D14
:102BFA000C2E22000330D50AD5052300D60303196B
:102C0A00092E5030D30008005230D300102E220073
:102C1A006F08200095002300AD0F1D2E22008C1294
:102C2A0021001C082300D80021009D141E2695317E
:102C3A005C2E2C00131B282E22008E122C00131738
:102C4A002300D90108002700931D080093112200D0
:102C5A008E162C0013133F3020009805303098044C
:102C6A0099170030991B0130F00018087006FE39D8
:102C7A007006980019171908DF399900190E890C7E
:102C8A000139F00019087006FC3970069900191606
:102C9A0096019701181421001114111C572E2100B6
:102CAA009117592E2100911320009915080022002E
:102CBA0068081F39031D08005030C900CA01680896
:102CCA00E0390138682EE8002400161408002400B0
:102CDA00141EE82EE0302200E80549083F3A03199D
:102CEA00E82E4908503A0319E82E6008CA00E82E6F
:102CFA00240011082200C800F826E0010800600834
:102D0A000B2796312200C9008100E00A49083F3AA0
:102D1A00031D942E6808E0391038E80008004908B5
:102D2A00503A031DA62ECA08031D9D2EF4019F2E9C
:102D3A001330F400F50168087406E0397406E800F7
:102D4A000800F826080040306002031808006008EE
:102D5A000B2781002200E00A0800563084009130D7
:102D6A008500003FF000013FF100023FF200033FFF
:102D7A00F30060308600023087007008C03F710897
:102D8A00C13F7208C23F7308C33FE001F82696317B
:102D9A006008603E860002300227963122006008F1
:102DAA00043A031D0800A62E240011082200CD00B3
:102DBA000800E001CA01F82696316008A03E8600A4
:102DCA00033002270800220068081F39F33E031C5B
:102DDA000800840008300402031808009131043501
:102DEA00943E8200080068081F39F000F00A68085B
:102DFA007006E0397006E800080087000108240020
:102E0A0091002200E00A240015160800203E8600E0
:102E1A000430870024001108080008302300EB0062
:102E2A00D4012200ED0123006B0822006D02031871
:102E3A002F2F6D0809070907203E860003308700F7
:102E4A006430C03F5230C13FFE30C23F7F30C33F83
:102E5A00ED0A182F16302100B0009130B1008B31E5
:102E6A00BB2397311630840091308500C330860029
:102E7A00233087002D30E70012001E00E70B412F98
:102E8A00C330A6002330A7004830A8008931142196
:102E9A00973110302300D40002302100A000A10194
:102EAA0023005408013E2100A2000030031801301B
:102EBA00A300C027973120082300EB002100A000BF
:102ECA008930A101A2004130A300C027973121080F
:102EDA002300D200210020082300D1002600A001EF
:102EEA00A101A201A3012200EE01EE0A23006B0850
:102EFA0022006E020318BA2F23006B082100E70094
:102F0A00FD30E801E735E80DE735E80D670784008D
:102F1A008F30683D8500003FE900013FEA00023F2B
:102F2A00EB00033FEC0022006E08090709071C3E6C
:102F3A00860003308700403F2100E907413FEA3D10
:102F4A00423FEB3D433FEC3D22006E08090709076B
:102F5A00203E860021006908C03F6A08C13F6B080D
:102F6A00C23F6C08C33F22007A2F52302300D3009D
:102F7A00DA01DB010800A501A11FCA2FA009A109D6
:102F8A00A00A0319A10AA501A50AA31FD32FA20902
:102F9A00A309A20A0319A30A0130A506A601A701DB
:102FAA00210820040319F32FA401A40AA11BE02F6E
:102FBA00A035A10DDA2FA635A70D21082302031D7E
:102FCA00E82F20082202031CEF2F2008A202210862
:102FDA00A33B2614A136A00CA40BE02F2508031945
:102FEA00FB2FA609A709A60A0319A70A2708A10001
:062FFA002608A0000800FB
:020000040001F9
:04000E0084CFCFDFED
:00000001FF
