:040000008031122811
:10000800803120007F08FD002700160803190E28FC
:1000180087311E277D082000FF0009008031142841
:100028003C30840023308500B430FE000030FF01EE
:100038008831B6208031EA01EB01EC01ED01EE01D7
:10004800EF0121002030EA01EB01EC01ED01EE01A6
:10005800EF018400013085002E30FE000030FF00E3
:100068008831B6208031A0308400013085003830D6
:10007800FE000030FF008831B620803166308400F1
:10008800973085004E308600013087000030FF0031
:100098001C3097315A278031EA3084008730850038
:1000A800D8308600013087000030FF000C309731CF
:1000B8005A278031823084009730850020308600AE
:1000C800033087000030FF00203097315A278031F5
:1000D80020006E28ED258D31582580310B1D76289E
:1000E8000226803122004F08503A031D7D284B22FA
:1000F8008031662580316F28E5008C290330220085
:1001080052020318D0282100FB2680316B082000FA
:10011800D600D701220052082000D6070318D70AB4
:100128000330D6052D30D701D800D90111228031EE
:100138003C302100E1002330E20020005608210075
:1001480061078400200057082100623D85002D309A
:10015800FF0016001A00FF0BAD282200D20A4F0834
:10016800523A031DD0283C30CD268031A526803157
:100178001122803156082100E10020005708210093
:10018800E20061082000E607210062082000E73D40
:10019800812380314B2280312100012780314F306B
:1001A800DE000130DF000D30E000A7218031A429F6
:1001B800EB012200D20152308A29012780319F3079
:1001C800DE008830DF000C30E000A7218031A42950
:1001D800FB2680311600010403195F296508023ED9
:1001E80086000230870064308400013085000630C4
:1001F800FF0016001A00FF0BFD28003022006502E0
:1002080080300319640203180C298030E400E501EA
:1002180000306502FB300319640203181D29003001
:100228006502E13003196402031C1D29E030E40073
:10023800E50101306502C23003196402031C282954
:10024800C130E4000130E50000306502FB300319DD
:1002580064026408DC006508DD00DE01DF010318C4
:100268003C29133019278031890B36291730422948
:10027800123019278031890B3D290730DC04003002
:10028800DD040330DE040030DF0465082000D700F9
:10029800220064082000D6000430D8003030D9008D
:1002A800262280315608003C2200CE0068082C0027
:1002B80092002200D6012100012780316430DE003F
:1002C8000130DF000630E000A7218031A429FB2699
:1002D80080310108313A003003190130E100E10EA4
:1002E80022000C0821006106EF39610622008C000B
:1002F80021006508023E86000108313A0319862963
:10030800443087295230E300E4012200CF00D0288E
:1003180065088600023087000108413A0319DC2885
:10032800023A0319EC28063A03196B290C3A031907
:10033800E1281A3A0319D028043A03198228A42973
:1003480022008C1608006008E100E20122003A0849
:100358002000D6000F30D701D800D90111228031F2
:1003680061085607E3006208573DE4006308023E4F
:10037800E5000030643DE600803AFF0080307F02EF
:10038800031DC82940306502031808000F302000FB
:10039800D60022003A0824258031203E860002300B
:1003A80087005C0884005D088500000881000F3024
:1003B800D60022003A0824258031213E86000230EA
:1003C80087002200310881002000E70160086702E9
:1003D80003180C2A0F30D60022003A082425803151
:1003E800E100223EE20067086207E300860002306F
:1003F80087005F08E5005E08E4006708640784007A
:1004080065080318650A850000088100E70AEA29DB
:1004180022000330BA0ABA050800DA01DB01561CCB
:10042800192A5808DA075908DB3DD835D90DD736C7
:10043800D60C57085604031D132A5B08D7005A0820
:10044800D6000800DB01DC01570856040319462AC8
:10045800DA01DA0AD71B332AD635D70D2D2ADB3530
:10046800DC0D57085902031D3B2A56085802031C85
:10047800422A5608D8025708D93B5B14D736D60CFF
:10048800DA0B332A5C08D7005B08D6000800A526DB
:100498008031112280313C30E8002330E9005608D1
:1004A800680786005708693D870001082200D300C5
:1004B8003C302000DC002330DD00A52680311122ED
:1004C800803113278031DC076908DD3D5030DE00BC
:1004D8008B22803121000330EB0AEB052200D70183
:1004E800D8014E082000950057302200CF00D203D3
:1004F800031908003C30CD268031A5268031112211
:10050800803113278031E6076908E73D812B8B137B
:1005180048302200BD009030BE005C30AC00013095
:10052800AD000230C000D5228031DA26803121307A
:10053800AC070318AD0A0330C000D5228031C4309F
:100548002200AC000130AD000530C000D52280315A
:10055800DA268031AC0A0319AD0A0830C000D5226A
:100568008031C0302200AC000130AD00C001C00AAB
:10057800D522803120005E082200BE00BD00A030D8
:10058800AC000130AD006A08C000D522D830220086
:100598008E008B17FD30DC05FF30DD05DE05DF053D
:1005A800080022002C0886002D08870048308E019C
:1005B800011890308E0048308E01811890308E00DE
:1005C80048308E01011990308E0048308E01811913
:1005D80090308E0048308E01011A90308E004830DD
:1005E8008E01811A90308E0048308E01011B9030A8
:1005F8008E0048308E01811B90308E00413148308A
:100608008E01011890308E0048308E01811890308C
:100618008E0048308E01011990308E0048308E01CE
:10062800811990308E0048308E01011A90308E006A
:1006380048308E01811A90308E0048308E01011B9F
:1006480090308E0048308E01811B90308E004131F1
:1006580048308E01011890308E0048308E01811884
:1006680090308E0048308E01011990308E0048304D
:100678008E01811990308E0048308E01011A903019
:100688008E0048308E01811A90308E0048308E01DD
:10069800011B90308E0048308E01811B90308E00F7
:1006A800413148308E01011890308E0048308E015B
:1006B800811890308E0048308E01011990308E00DC
:1006C80048308E01811990308E0048308E01011A11
:1006D80090308E0048308E01811A90308E0048305C
:1006E8008E01011B90308E003D088E01811B3E0853
:1006F8008E004131C00BDA2A0800D830860001305C
:100708008700A8308400003085000C30FF001600F8
:100718001A00FF0B8B2B2100E0018A26803186000E
:10072800230887004131403FA400413FA500423FD4
:10073800A600433FA700600809070907B83E8600DE
:1007480087012408C03F2508C13F2608C23F270863
:10075800C33F0830E00A6002031C912BE0015C26CD
:10076800803124258031183E35268031242580317A
:10077800143EB83E86008701403F2100C4268031E0
:100788002406DC0021082506DD0022082606DE00F6
:1007980023082706DF005C26803124258031103E9F
:1007A800B83E47268031EB2680315C2680312425EF
:1007B8008031183EB83E47268031DC062108DD0628
:1007C8002208DE062308DF06600809070907A83E95
:1007D8008600403FD22680318A268031213E86001D
:1007E8000030233D8700403FD22680315C2680318F
:1007F800242580311C3EB83E86008701403F2100F9
:10080800D22680315C268031242580317A268031B9
:10081800722680311A30DD00312580316226803120
:100828005C268031242580317A26803172268031F9
:100838001530DD00312580315C082100B70020002B
:100848005B082100B60020005A082100B5002000EE
:1008580059082100B4005808F32680315C268031FD
:10086800242580317A268031722680310730DD00D8
:100878003125803162268031F326803134085C07C7
:10088800A00035085D3DA10036085E3DA20037088E
:100898005F3DA3005C268031242580310E278031FE
:1008A800802680315C268031242580311C3E352607
:1008B8008031242580310C3EB83E86008701403FB8
:1008C8002100A007413FA13D423FA23D433FA33D38
:1008D8005C268031242580310C3EB83E8600870195
:1008E800802680319D268031403F2000722680314D
:1008F8001E30DD0031258031AE2680319D268031C5
:100908008701403F2000722680311330DD003125F9
:100918008031622680315C08E32680319D26803153
:100928008701403F2000722680310A30DD003125E2
:100938008031AE268031E32680316008013CBE2636
:1009480080318701403F542680319D268031403FC9
:10095800C42680312404DC0021082504DD00220897
:100968002604DE0023082704DF006008023CBE26B8
:100978008031403F542680312008EB2680316008C2
:10098800013CBE268031403F542680319D2680316F
:10099800403FC42680312405B40021082505B50050
:1009A80022082605B60023082705B7003408DC040A
:1009B8003508DD043608DE043708DF0458085C070C
:1009C800A00059085D3DA1005A085E3DA2005B08E1
:1009D8005F3DA3005C268031242580310E278031BD
:1009E80021002008810741312108813D4131220839
:1009F800813D41312308813D5C26803124258031A9
:100A08001C3E3526803124258031C83E86000130C1
:100A18008700802680315C268031242580310C3E79
:100A28003526803124258031D43E86000130870068
:100A3800802680310330E00A600203180800B32BD7
:100A48002000D800D70156085818D707D635D83609
:100A5800D808031D272D570808005908DE005A0832
:100A6800DF005B08E0005C08E1005D08203C890AC3
:100A7800422D0310E10CE00CDF0CDE0CFF3E031DE1
:100A88003D2D5908E2005A08E3005B08E4005C08C1
:100A9800E5005D0A532DE235E30DE40DE50D890B04
:100AA8004F2D6208DE046308DF046408E00465086B
:100AB800E1046108DC006008DB005F08DA005E081A
:100AC800D9000800203021006A02031C08003D00FC
:100AD8008E180800220036080319772D36080727D4
:100AE8008031E600792D2100E601E70167086604F8
:100AF800031D8C2DA030802080312000A030D9012A
:100B0800DA004030DB000130B52580312200B60024
:100B180022003A083B060319080035080319992DE5
:100B2800350807278031E8009B2D2100E801E901FD
:100B380069086804031D080020000F30D901D90A8C
:100B4800D60022003B0824258031203EDA000F30F1
:100B5800DB000130B5252200B5000330BB0ABB0518
:100B68000800DE0059080319BE2D5E086A3E86009B
:100B78008701C22D5E088F31EA2780310108DF0026
:100B8800DF08031900345A08DC000230DD005F0872
:100B9800023E860087015C08C03F5D08C13F5F0ACE
:100BA80086005B0881005F088600403081055F0889
:100BB80086008830810459080319E62D5E086A3ECC
:100BC8008600E92D5E088F31EA27043081065F0828
:100BD800080023008C018D0104308E00210098014B
:100BE800FC309900903027009B002200B601B50127
:100BF800BB01BA018931EF218E312A2E22004E081D
:100C0800200095070B1123009D1B0D2E9D17220018
:100C1800B00122004F08573A031D2B2E573086008B
:100C280001308700810741310318810A7F31403F35
:100C38005906031D212E413F5A06031D2B2E52082B
:100C48000319292E5030CF0008005230CF00B20FC0
:100C580008008C1221001C082200D40021009D14D9
:100C68000800B83E86008701403F2100A000413FB0
:100C7800A100423FA200433FA300FC302000D60061
:100C880021006008080086008701403F2100A0007D
:100C9800413FA100423FA200433FA30020080800B3
:100CA800A000413FA100423FA200433FA30008002B
:100CB800FC302000D6002100600808005C082100F4
:100CC800DB0020005B082100DA0020005A08210020
:100CD800D900200059082100D8000800D900413F58
:100CE800DA00423FDB00433FDC000800103EB83E1C
:100CF80086008701403F080021002008C03F2108E6
:100D0800C13F2208C23F2308C33F08006008A00073
:100D1800A101A035A10DA035A10D2008200066076E
:100D28002100A20021082000673D2100A30022081D
:100D380008006008003C073909070907B83E860023
:100D4800080021006B082000D6002D30D701D800FC
:100D5800D90108005C082100DF0020005B082100A1
:100D6800DE0020005A082100DD002000590821007B
:100D7800DC000800073909070907B83E86000800A3
:100D8800A400413FA500423FA600433FA70020081A
:100D980008002000E6002330E7000800DC07413F98
:100DA800DD3D423FDE3D433FDF3D080020005D085A
:100DB8002200AD0020005C082200AC000800D80624
:100DC8005D08D9065E08DA065F08DB060800DC0560
:100DD8002108DD052208DE052308DF050800B40622
:100DE8005908B5065A08B6065B08B706080065082C
:100DF800023E860002308700080065082000DC00FB
:100E08000230DD00080086008701010D010D01395F
:100E1800210008001C3EB83E8600870108005608DD
:100E2800E8005708E90068080800DC35DD0DDE0D2C
:100E3800DF0D0800FC012200B0010430220030025E
:100E48000318482F2000911E352F22003008433EFA
:100E58008600013087002300190881002200B00AAB
:100E6800FC012230FC0A7C02031C3D2F2200DB0A15
:100E78005B2F23009D1C212F22004F08573A03198E
:100E8800D60A23009D135B2F4F08573A031D5B2F8B
:100E98003D30C1005308C2004130F6000130F70070
:100EA8004230F8000130F9000730FA0061272300CA
:100EB8009D139D172700960108007A082000D0008E
:100EC800D10122003A08F0000F30F101F200F301DD
:100ED800D5278731200050087007D2005108713D8E
:100EE800D3005208023ED4000030533DD500803A6A
:100EF800FF0080307F02031D832F40305402031807
:100F080008000F30F00022003A08C9278731203E38
:100F1800860002308700760884007708850000087C
:100F280081000F30F0003A08C9278731213E86003A
:100F38000230870031088100FB017A087B02031820
:100F4800C42F0F30F00022003A08C927873120004B
:100F5800D000223ED1007B085107D2008600023023
:100F680087007908D4007808D3007B0853078400E9
:100F780054080318540A850000088100FB0AA12FB1
:100F880022000330BA0ABA050800F100F20170081D
:100F98007118F207F035F136F108031DCB2F7208EE
:100FA8000800F401F501701CDD2F7208F4077308BE
:100FB800F53DF235F30DF136F00C71087004031DA0
:100FC800D72F7508F1007408F000080098342F3402
:100FD8008A3442349134443437347134CF34FB3456
:040FE800C034B53428
:101000000034AB34053439346D34343403344B3468
:1010100000346C3400346F3400346E340034643483
:101020000034693400346B340034653400342034C7
:10103000003450340034723400346F3400346A3475
:1010400000346534003463340034743400340034C4
:1010500000340034003400340034003400340034F0
:1010600000340034003400340034003400340034E0
:101070000034343403344B340034313400343634E7
:1010800000340034003400340034003400340034C0
:1010900000340034003400340034003400340034B0
:1010A00000340034003400340034003400340034A0
:1010B0000034003400340034003400340034003490
:1010C0000034003400340034003400340034003480
:1010D0000034003400340034003409340234203445
:1010E0000034013401340034C0343234093404345F
:1010F000003400340234FF34FF34FF34003407344A
:1011000005340134023440340034013407340534EA
:101110008134023440340034013412340134003458
:1011200002340034003400340834D83404340A342F
:10113000F634003400340134023400340134103405
:101140004B34313436340034003400340034EF345E
:0E115000BE34AD34DE340434033409340434C8
:10116C006400800101310130FE020030FF3B7F083A
:10117C007E0403190034B7282000C801C901EB28EC
:10118C002200CB172000481422002F0BF628200039
:10119C00C814F6282200CB17F6282200CB17200003
:1011AC00C41BDC28440806218831DE280021883144
:1011BC000108D60086008701811FF6285608860094
:1011CC00011DF6280130C800F62840081F39031904
:1011DC00C628013A0319D028033A0319D328F62854
:1011EC002200CB1F08004830C9000230CA014B1442
:1011FC00CC00080044080F396A3E860087010800BD
:10120C000F392A3E860001308700080022000E307C
:10121C00CB172000E6009930E500E7016508860051
:10122C00660887008101E50A0319E60AE70A031933
:10123C0014292030D601D701D800D9016121893178
:10124C003D000E172000E8016808263E860001309C
:10125C00870081016808283E860002308101E80A77
:10126C006802031C2A29EE30D601D701D801D80A0E
:10127C00D901612189313D000E1328302000EA008C
:10128C002030EE00EF0042082100ED00ED08031DB8
:10129C0052291030EA0008002000ED30E001E00A8D
:1012AC00E101E200E301E30AE4018D31FB2520308A
:1012BC002100EA000800DA00DB000130D80200301F
:1012CC00D93B580A0319590A031908005B08860010
:1012DC00870156088100DB0A63296E0886008701A6
:1012EC00413FDB00D800D901590822002402031D1C
:1012FC008329200058082200230203188829230878
:10130C002000DB0020005B08D800D901220023025A
:10131C00A300200059082200243BA4002000DA017D
:10132C005B085A020318AA292200200886008701AC
:10133C0020005A08483E84008501000881002200E4
:10134C00A00A2000DA0A96290330203E86000130DC
:10135C008700160001040319C9296F0A860008309A
:10136C00870181004830E52189316E0886006F08BD
:10137C00011BC4298600C830810008008600883013
:10138C008701810008006F0AE0218931E52189314C
:10139C006F08860084308100220025080319D929A2
:1013AC0025088931D829A2132000EC08031D080058
:1013BC008E319A2E86000830870181004034D80087
:1013CC00D9016F08023E86005808C03F5908C13F3A
:1013DC00080021008C1222008C1612228931232243
:1013EC008931FC2189313B2289314C2A210095120B
:1013FC0095110730950422004E082000950021001D
:10140C008E130E130E128E11D83022008E00210076
:10141C000C1222000C16080021000E151D08833931
:10142C0018389D001D149E131E088F3960389E00BD
:10143C00FC309E058F309F0508008E162C00930102
:10144C00FF3020009B00C0302C009300E63092004F
:10145C009101200091101C08FC3901389C001C15CE
:10146C0021008E122C0013170800B00123001E1649
:10147C009D179E131F128D12270094178B15960122
:10148C008B1723001D16FF30990008001030220026
:10149C00D00002302000D600D70122005008013EB7
:1014AC002000D800003003180130D900C022893147
:1014BC0056082200EA002000D6004030D701D8019F
:1014CC00D900C022893157082200DA0020005608C2
:1014DC002200D9002300A001A101A201A301200038
:1014EC00E601E60A22006A08200066020318BA2AFE
:1014FC006608090709079C3E860001308700403FBB
:10150C00DE00413FDF00423FE000433FE1002200AC
:10151C006A08090709071C3E860003308700403F14
:10152C002000E200413FE300423FE400433FE5007E
:10153C00E235E30DE40DE50D6208DE076308DF3DDF
:10154C006408E03D6508E13D660809070907A03E0F
:10155C008600013087005E08C03F5F08C13F60080D
:10156C00C23F6108C33F772A52302200CF00D70117
:10157C00D8010800DB01D71FCA2AD609D709D60A19
:10158C000319D70ADB01DB0AD91FD32AD809D909D9
:10159C00D80A0319D90A0130DB06DC01DD01570832
:1015AC0056040319F32ADA01DA0AD71BE02AD635D6
:1015BC00D70DDA2ADC35DD0D57085902031DE82A50
:1015CC0056085802031CEF2A5608D8025708D93B74
:1015DC005C14D736D60CDA0BE02A5B080319FB2A0D
:1015EC00DC09DD09DC0A0319DD0A5D08D7005C089B
:1015FC00D600080020006A08860000308701011B15
:10160C000130DB000430EA0621006A08083A031DA9
:10161C001B2B200042083D00960016080319182BBE
:10162C001030192B04302100EA0020006D0B472BE1
:10163C004830D900DA016A08023E86008701590851
:10164C00C03F5A08C13FC5238B3121006C08023AB8
:10165C00031D372B20006A08860084308701810027
:10166C0008002000DB08031D412B6A088600C830E7
:10167C008701810008006A08860088308701810094
:10168C0008002200A21F512B25080319502B2508F6
:10169C008B314F2BA2132000ED0108003D000E12E0
:1016AC002200CB1B702BA21F672B02302000ED00F9
:1016BC002200B408031D632B8B232200B801B70151
:1016CC000800200004248C3081006A0886008430D5
:1016DC00810008002000C01F842BED01ED0A2200C0
:1016EC00B308031D7B2B8B238B312200B801B70170
:1016FC002000EC08031D08008E319A2E0230ED00FC
:10170C0004248B31843081007B2BB301B401200085
:10171C006D08023A031DA32B6F0A8600083087015F
:10172C0081004830D900DA016F08023E8600590862
:10173C00C03F5A08C13F6F08272C22004D082000DB
:10174C004702031DAD2B22004C0820004602031853
:10175C00B62B47082200CD00200046082200CC0002
:10176C00C5238B314830D900DA016A08023E860065
:10177C0087015908C03F5A08C13F6A08272C083016
:10178C002000D800003022004D02083003194C0212
:10179C000318DE2B4C082000D8002100EC08031D98
:1017AC00DA2BEC01EC0ADE2B6C0BDE2B0230EC009E
:1017BC0020005808D600D70122004C02CC00200093
:1017CC00570822004D3BCD0020006A0A8600870195
:1017DC005808810048302200BF004B1CF82BFF2B0F
:1017EC0016248B312000D80803190800F62B162478
:1017FC008B312000D80803190800FD2B6F0A8600D6
:10180C000830870181004030DB00DC016F08023EAC
:10181C0086005B08C03F5C08C13F6F08860008006B
:10182C0022003F0886008701490884004A08850089
:10183C0000088100C90A0319CA0ABF0A2000D8038C
:10184C0008008600C83081000800EC012000EC0183
:10185C002200B301B401AE012000ED016A0886003C
:10186C00043087018113EA066A088600043081136C
:10187C00EA066F08860081132200CB01CC01CD0152
:10188C00A201A301A40151248C310330CC278C314B
:10189C00FB258B31542B2000400E890C0339031D82
:1018AC000800410884000D30040203180800903130
:1018BC000435003E8200080022000830CB172100BE
:1018CC00EA0008009731A22F89310C29ED30220053
:1018DC00C9000030CA014B14CC01CC0ACB1708004C
:1018EC008831C2288D2C4408EE3E6D2C2200CB177B
:1018FC0020004408EE3E8600870142088100080063
:10190C000230E000E101E201E301E401FB2D2000E3
:10191C00420BA12C40081F39031DA12C2200CB1710
:10192C0020004108033A031D9F2C2200AF01AF0A8F
:10193C00A12C2200AF0120004208031D0800400822
:10194C001F39023A031D080044080F390319080017
:10195C0044080F39E5000230650203180800210025
:10196C006A08203A031D08002200CB172000C41B74
:10197C00C82C4408893106218C31E3278C31283E50
:10198C008600D12C893100218C31E3278C31263E05
:10199C0086000130870001082100A2002218D82CF3
:1019AC002311D92C23152000C41BE12C44088931A8
:1019BC0006218C31E42C893100218C312100230843
:1019CC00810020004108033A031D072D2100230844
:1019DC0086008701811F002D2000C41BF92C4408B0
:1019EC000F39283EFC2C44080F39263E8600013066
:1019FC00870081142100230886008430870181042C
:101A0C00080004302100A306230886008701230860
:101A1C00811F1C2D860081138600053001172000C4
:101A2C00E000D3278C31FB258C311F2D86008701DC
:101A3C00011704302100A306A218292D23088600C3
:101A4C008701811F422D2000C41B302D44080F3903
:101A5C00283E332D44080F39263E8600013087007E
:101A6C0081102100EF278C3105302000E000D327B6
:101A7C008C31FB258C31432DEF27200044080F3986
:101A8C00983EE5000E30E601E63D65082100A00019
:101A9C00200066082100A10020088600210887008C
:101AAC00011008002100EA08031D692D3D008E017C
:101ABC0092011630F5278C318E19662D8E15622DFC
:101ACC002100EA01EA0A6A03031D762D3D008E1AF5
:101ADC00762D900192011214121602302100EA00A8
:101AEC003D001019121D7D2D101147278C318E1CB5
:101AFC00822D2000121108001018121C8B2D2A2682
:101B0C008C310430EA003D001010101A121E922D78
:101B1C0040278C313D001012101FA92D121F9E2D35
:101B2C0073302000E000E101FB278C31FB258C3168
:101B3C003D00101322003908031DB903B908031D19
:101B4C00A92D9A268C313D00901A921EAF2D282774
:101B5C008C319018921CBD2DFF302000E0007F309E
:101B6C00E100FB278C31FB258C313D0093010430C7
:101B7C0021006A02031C7F2D3D00921D7F2D210048
:101B8C00A7013D00901D7F2D0F082100EF006F0C69
:101B9C00A600A60C260C0F392200BC003D009011AB
:101BAC0021006F19DD2D22003C08283EE02D22007B
:101BBC003C08263E8600013087008106BC08031DC8
:101BCC00EA2DD4268C31F42D72302000E000EF3059
:101BDC00E101E200E301E401FB258C31210004303A
:101BEC00A70A270203187F2DC72D6108003A031995
:101BFC000A2E7F3A0319242E292EA92FAB2FAA2F98
:101C0C00502FA52FA72FA82F6008013A0319062ED5
:101C1C00033A0319072E013A0319082E063A031941
:101C2C00292E773A0319292E013A0319032E073A64
:101C3C000319052E013A0319042E292E6008FF3AC8
:101C4C000319092E292E0800210012113D009301C1
:101C5C00900198010E302000D9009930D800DA019B
:101C6C0058088600590887008101D80A0319D90A37
:101C7C00DA0A0319362E16303D00F5278C31200078
:101C8C00DB015B0809070907203E8600003087014D
:101C9C00C03FC13FC23FC33F0830DB0A5B02031C9D
:101CAC00472E3D000E1796010E120E133D00901D8F
:101CBC00662E90112200CB01A201A301A4015C2E7F
:101CCC0001302200B700B800B301B4012000DB01E1
:101CDC005B086A3E8600870181015B082A3E86000C
:101CEC000130870081015B08263E860081015B087C
:101CFC00283E860002308101DB0A5B02031C6E2E3B
:101D0C002830EA0016303D00980040302000D60004
:101D1C00D701A2005708A3000830A1008430A0000E
:101D2C002100ED01EA0108002200B708031D08009C
:101D3C000130B700B808031D0800B80020006D087A
:101D4C00023A031DB02E6A0A8600870181016A08D7
:101D5C008C31272C6D0B08002200AE0120006E0A7E
:101D6C008931E0218C31D600D7016E08DC278C310B
:101D7C006E088600843081002200AE01AE0A20007D
:101D8C006F0A8600083081004030D600D7016F08FA
:101D9C00DC276F0886008030810008002D30B900E8
:101DAC0021006F08FD39031D202F6F363F390907BD
:101DBC000907203E2000EE00EF000430EF066E080D
:101DCC0086008701010C890C0F390D3A031D1F2F5A
:101DDC00E9016908403E860087016E08023E8400D6
:101DEC008501003F2100A400013FA50024088400C8
:101DFC00250885000008810020006E08023E860040
:101E0C000130810741310318810A0830E90A69025F
:101E1C00031CEF2E40302100A400A50120006E0809
:101E2C00023E8600870121002408C03F2508C13FDF
:101E3C002B2CAC2FFD306F05A400043A031D0800B9
:101E4C008B31002B181C3E2F20006E08860087015A
:101E5C000108803A031D3C2F6A0886000108843A69
:101E6C00031D3C2F6E0886008C3081003D0018103D
:101E7C0090120800121510128E147530CC278C316C
:101E8C00FB2D7430CC278C31FB253D008E101211AC
:101E9C00101108001E30DA0001305F27A030D90184
:101EAC00DA004030DB0001308531B5252200B60068
:101EBC000800DF005A1D652FD6017E278C31DA1CF5
:101ECC006B2FD601D60A5F087E275F08983EDB0091
:101EDC000E30DC01DC3D5B08DD005C08DE005A08DE
:101EEC00DB005D0886005E0887005B088100080047
:101EFC00D8002030D9005608D700D7355808090724
:101F0C000907570709070907D907590886008701E8
:101F1C008113D608031D962F5808EA278C319A2F67
:101F2C0058086A3E860087015908810059088600C6
:101F3C00870101135908043E8600011708000800A8
:101F4C00A72F080008000800080008006D08023AD6
:101F5C00031DB22F89317329ED012200AE08031D38
:101F6C00CA2F20006F0A8931E0218C31DC00DD01A1
:101F7C006F08023E86005C08C03F5D08C13F6F08D9
:101F8C0086008C3081000800AE0108002000E000C3
:101F9C00E101E201E301E4010800E1012100230871
:101FAC002000E200E301E30AE4010800023E86009F
:101FBC005608C03F5708C13F080001082100A30084
:101FCC00200044080F3908002A3E860001308700A3
:101FDC000800230886003B3087018105080091002A
:101FEC009F3097007B3092000800E201E301E30A86
:101FFC00E40108008C31762C8C31782C8C31612CDE
:10200C008C31782C8C31612C8C31622C8C31682C7D
:10201C008C31862C8C316C2C8C316A2C8C31792C3B
:08202C008C317C2C8C31612CFD
:102EB400FE0012001E000130FE020030FF3B7F08BE
:102EC4007E04031900345B2FD034493400340034B9
:102ED400003400340034003400340034003400344E
:102EE400403400340734003403340434723401347D
:102EF40000340034003401343C345034E6340034BB
:102F040000340034003400340034003400344034DD
:102F1400AA34AA34AA342A340034003400342034C5
:102F24009934993499341934553455345534153405
:102F340092342434493412340034003400341034CC
:102F440020004008803A031D0800C0302200CB0056
:102F5400D92F8D302200C9008830CA001230CC002D
:102F6400CD010800043084008830E6279731F92722
:102F74009731023EF1279731CC004A08F92797315F
:102F8400033EF127CD000800033042020318D62F78
:102F9400013084008830E627490884004A08850007
:102FA4000008CC00CD0108002200CB01080020005D
:102FB4004308013A0319AB2F033A0319B42F013A1A
:102FC4000319C62FD62F080085004208840703186A
:102FD400850A003F2200C9008830CA000800840026
:102FE40057080318570A850000082200080020002B
:0C2FF400D700220049082000D600080089
:020000040001F9
:04000E0084CFCFDFED
:00000001FF
