:040000008031122811
:10000800803120007F08FD002700160803190E28FC
:10001800893172217D082000FF0009008231262ADB
:10002800EC012000EC012200B301B401AE01200074
:10003800ED016A088600043087018113EA066A0820
:10004800860004308113EA066F08860081132200B7
:10005800CB01CC01CD01A201A301A4013A2080313A
:1000680003305C278031362380315B2E2000400E20
:10007800890C0339031D0800410884000D3004026F
:100088000318080090310435003E82000800220061
:100098000830CB172100EA000800DD287728ED306A
:1000A8002200C9000030CA004B14CC01CC0ACB177F
:1000B800080021295F294408EE3E2200C9000030CB
:1000C800CA0158282200CB1720004408EE3E8600BB
:1000D80087014208810008000230E000E101E201E6
:1000E800E301E401362B22000E30CB172000E60096
:1000F8009930E500E70165088600660887008101F8
:10010800E50A0319E60AE70A03197F282030D60111
:10011800D701D800D901CB2080313D000E1720002F
:10012800E8016808263E86000130870081016808DA
:10013800283E860002308101E80A6802031C9528DF
:10014800EE30D601D701D801D80AD901CB208031A9
:100158003D000E1328302000EA002030EE00EF00AA
:1001680042082100ED00ED08031DBD281030EA000B
:1001780008002000ED30E001E00AE101E200E301BF
:10018800E30AE401362320302100EA000800DA00FF
:10019800DB000130D8020030D93B580A0319590A4C
:1001A800031908005B088600870156088100DB0AEE
:1001B800CD2820004008803A031D0800C0302200E6
:1001C800CB0014298D302200C9008830CA001230B3
:1001D800CC00CD01080004308400883051278031DC
:1001E80080278031023E6C278031CC004A08802766
:1001F8008031033E6C27CD0008000330420203180B
:1002080011290130840088305127490884004A08A0
:1002180085000008CC00CD0108002200CB010800B1
:1002280020004308013A0319E628033A0319EF2886
:10023800013A03190129112908002000C801C90140
:100248004A292200CB172000481422002F0B5529D9
:100258002000C81455292200CB1755292200CB1796
:100268002000C41B3B294408742780313D297A2784
:1002780080310108D60086008701811F552956085C
:100288008600011D55290130C800552940081F392D
:1002980003192529013A03192F29033A0319322989
:1002A80055292200CB1F08004830C9000230CA0176
:1002B8004B14CC0008002000420B732940081F395A
:1002C800031D73292200CB1720004108033A031DA0
:1002D80071292200AF01AF0A73292200AF01200063
:1002E8004208031D080040081F39023A031D080090
:1002F80044080F390319080044080F39E500023093
:1003080065020318080021006A08203A031D080046
:100318002200CB172000C41B992944087427803178
:1003280095278031283E8600A1297A278031952794
:100338008031263E86000130870001082100A20096
:100348002218A8292311A92923152000C41BB02984
:10035800440874278031B2297A2780312100230884
:10036800810020004108033A031DD52921002308F4
:1003780086008701811FCE292000C41BC729440895
:100388000F39283ECA2944080F39263E8600013015
:1003980087008114210023088600843087018104A6
:1003A800080004302100A3062308860087012308DB
:1003B800811FEA2986008113860005300117200075
:1003C800E0006327803136238031ED2986008701DC
:1003D800011704302100A306A218F7292308860074
:1003E8008701811F102A2000C41BFE2944080F39E9
:1003F800283E012A44080F39263E8600013087002E
:1004080081102100AC27803105302000E0006327EF
:10041800803136238031112AAC27200044080F3957
:10042800983EE5000E30E601E63D65082100A00093
:10043800200066082100A100200886002108870006
:10044800011008003C30840023308500B430FE00E1
:100458000030FF01973178278031EA01EB01EC0188
:10046800ED01EE01EF0121002030EA01EB01EC0182
:10047800ED01EE01EF018400013085002E30FE0011
:100488000030FF00973178278031A0308400013098
:1004980085003830FE000030FF0097317827803122
:1004A800DD308400873085004E30860001308700BB
:1004B8000030FF001C3097316C278031B230840047
:1004C80088308500D8308600013087000030FF0072
:1004D8000C3097316C278031BD308400873085001F
:1004E80020308600033087000030FF00203097312D
:1004F8006C2780312000802ABB24803193228031F0
:100508000B1D882A8824803122004F08503A031D89
:10051800902A8B31DE2380311B258031822A2100ED
:10052800EA08031DA42A3D008E0192011630B22765
:1005380080318E19A12A8E159D2A2100EA01EA0A26
:100548006A03031DB12A3D008E1AB12A9001920157
:100558001214121602302100EA003D001019121D73
:10056800B82A1011D52380318E1CBD2A2000121103
:1005780008001018121CC62A652380310430EA00CE
:100588003D001010101A121ECD2ADE2380313D00C6
:100598001012101FE42A121FD92A73302000E0001D
:1005A800E101B8278031362380313D001013220045
:1005B8003908031DB903B908031DE42AFD23803156
:1005C8003D00901A921EEA2AE52380319018921C69
:1005D800F82AFF302000E0007F30E100B8278031A2
:1005E800362380313D009301043021006A02031C48
:1005F800BA2A3D00921DBA2A2100A7013D00901D8C
:10060800BA2A0F082100EF006F0CA600A60C260CD2
:100618000F392200BC003D00901121006F19182BE2
:1006280022003C08283E1B2B22003C08263E860060
:10063800013087008106BC08031D252B3524803135
:100648002F2B72302000E000EF30E101E200E301DF
:10065800E4013623803121000430A70A2702031859
:10066800BA2A022B6108003A0319452B7F3A03196D
:100678005F2B642BA02D9E2D9F2DA52DA42DA32D82
:10068800A12D6008013A0319412B033A0319422BA3
:10069800013A0319432B063A0319642B773A0319D5
:1006A800642B013A03193E2B073A0319402B013AF0
:1006B80003193F2B642B6008FF3A0319442B642B62
:1006C8000800210012113D009301900198010E309D
:1006D8002000D9009930D800DA0158088600590856
:1006E80087008101D80A0319D90ADA0A0319712B7C
:1006F80016303D00B22780312000DB015B08090776
:100708000907203E860000308701C03FC13FC23F35
:10071800C33F0830DB0A5B02031C822B3D000E1727
:1007280096010E120E133D00901DA12B9011220070
:10073800CB01A201A301A401972B01302200B7002D
:10074800B800B301B4012000DB015B086A3E8600F3
:10075800870181015B082A3E8600013087008101FC
:100768005B08263E860081015B08283E8600023031
:100778008101DB0A5B02031CA92B2830EA00163032
:100788003D00980040302000D600D701A20057084D
:10079800A3000830A1008430A0002100ED01EA0187
:1007A800080074305C27803136233D008E1012110A
:1007B80010110800121510128E1475305C27803144
:1007C800362B181CFB2B20006E08860087010108B9
:1007D800803A031DF92B6A0886000108843A031D34
:1007E800F92B6E0886008C3081003D00181090129D
:1007F80008002200B708031D08000130B700B80838
:10080800031D0800B80020006D08023A031D112CD2
:100818006A0A860087018101A72F6D0B0800220054
:10082800AE0120006E0A9731F1278031D600D7013A
:100838006E088E2780316E08860084308100220081
:10084800AE01AE0A20006F0A8600083081004030F1
:10085800D600D7016F088E276F0886008030810088
:1008680008002D30B90021006F08FD39031D812CC7
:100878006F363F3909070907203E2000EE00EF00D8
:100888000430EF066E0886008701010C890C0F39C9
:100898000D3A031D802CE9016908403E8600870156
:1008A8006E08023E84008501003F2100A400013F3C
:1008B800A500240884002508850000088100200080
:1008C8006E08023E86000130810741310318810A13
:1008D8000830E90A6902031C502C40302100A400AA
:1008E800A50120006E08023E860087012100240829
:1008F800C03F2508C13F1428102FFD306F05A40004
:10090800043A031D0800072E22004E082000950710
:100918000B1123009D1B932C9D172200B001220070
:100928004F08573A031DB12C573086000130870015
:10093800810741310318810A7F31403F5906031D61
:10094800A72C413F5A06031DB12C52080319AF2C9E
:100958005030CF0008005230CF00B20F08008C1280
:1009680021001C082200D40021009D140800230047
:100978008C018D0104308E0021009801FC30990013
:10098800903027009B002200B601B501BB01BA01D7
:10099800CF248031652B21008C1222008C16F42480
:1009A8008031DC24803105258031CF258831BE286F
:1009B8008E162C009301FF3020009B00C0302C00C5
:1009C8009300E63092009101200091101C08FC3938
:1009D80001389C001C1521008E122C0013170800EA
:1009E80021000E151D08833918389D001D149E130B
:1009F8001E088F3960389E00FC309E058F309F0599
:100A080008002100951295110730950422004E0820
:100A18002000950021008E130E130E128E11D8306F
:100A280022008E0021000C1222000C160800203033
:100A380021006A02031C08003D008E1808002200ED
:100A4800360803192C2D360887278031E6002E2D0D
:100A58002100E601E70167086604031D3E2DA0306A
:100A68008A313B22803120009C27803168258031E3
:100A78002200B60022003A083B0603190800350890
:100A880003194B2D350887278031E8004D2D2100AB
:100A9800E801E90169086804031D080020000F3017
:100AA800D901D90AD60022003B088E31B7268031F9
:100AB800203EDA000F30DB00013068252200B50047
:100AC8000330BB0ABB050800DE0059080319712D65
:100AD8005E086A3E86008701742D5E08A227803171
:100AE8000108DF00DF08031900345A08DC0002306F
:100AF800DD005F08023E860087015C08C03F5D0894
:100B0800C13F5F0A86005B0881005F0886004030AD
:100B180081055F0886008830810459080319982DDB
:100B28005E086A3E86009A2D5E08A2270430810678
:100B38005F0808000800080008000800A32D080046
:100B480008001E30DA000130B02580319C27803142
:100B580068252200B6000800DF005A1DB62DD60110
:100B6800E0258031DA1CBC2DD601D60A5F08E025C5
:100B78005F08983EDB000E30DC01DC3D5B08DD00E1
:100B88005C08DE005A08DB005D0886005E08870006
:100B98005B0881000800B00123001E169D179E13F4
:100BA8001F128D12270094178B1596018B1723009F
:100BB8001D16FF3099000800D8002030D9005608CB
:100BC800D700D7355808090709075707090709073C
:100BD800D9075908860087018113D608031DF82D07
:100BE8005808A2278031FC2D58086A3E86008701E4
:100BF8005908810059088600870101135908043EE5
:100C080086000117080020006A0886000030870166
:100C1800011B0130DB000430EA0621006A08083AAB
:100C2800031D222E200042083D00960016080319D5
:100C38001F2E1030202E04302100EA0020006D0BFA
:100C48004E2E4830D900DA016A08023E8600870134
:100C58005908C03F5A08C13FD126803121006C088D
:100C6800023A031D3E2E20006A0886008430870160
:100C7800810008002000DB08031D482E6A08860052
:100C8800C8308701810008006A088600883087011B
:100C9800810008002200A21F582E25080319572E8C
:100CA80025088631562EA2132000ED0108003D00CC
:100CB8000E122200CB1B792EA21F6E2E02302000AE
:100CC800ED002200B408031D6A2E95262200B80103
:100CD800B701080020006F0A860041278C30810088
:100CE8006A0886008430810008002000C01F8C2E0E
:100CF800ED01ED0A2200B308031D842E95268031EC
:100D08002200B801B7012000EC08031D0800FD2BE4
:100D18000230ED006F0A860041278031843081005F
:100D2800842EB301B40120006D08023A031DB02ED1
:100D38006F0A86000830870181004830D900DA013F
:100D48006F08023E86005908C03F5A08C13F6F0825
:100D58008600C8308100080022004D0820004702A4
:100D6800031DBA2E22004C08200046020318C32E89
:100D780047082200CD00200046082200CC00D126DA
:100D880080314830D900DA016A08023E86008701BE
:100D98005908C03F5A08C13FA72F08302000D80083
:100DA800003022004D02083003194C020318EA2EC5
:100DB8004C082000D8002100EC08031DE62EEC01A9
:100DC800EC0AEA2E6C0BEA2E0230EC0020005808E0
:100DD800D600D70122004C02CC0020005708220080
:100DE8004D3BCD0020006A0A860087015808810023
:100DF80048302200BF004B1C042F0B2F30278031B6
:100E08002000D80803190800022F3027803120005D
:100E1800D80803190800092F6D08023A031D162F78
:100E28009731842FED012200AE08031D2E2F2000DC
:100E38006F0A9731F1278031DC00DD016F08023E2F
:100E480086005C08C03F5D08C13F6F0886008C3093
:100E580081000800AE01080022003F0886008701D3
:100E6800490884004A08850000088100C90A031956
:100E7800CA0ABF0A2000D803080008308701810089
:100E88004030DB00DC016F08023E86005B08C03F93
:100E98005C08C13F6F088600080085004208840787
:100EA8000318850A003F2200C9008830CA000800DC
:100EB8002000E000E101E201E301E4010800E101B2
:100EC800210023082000E200E301E30AE40108000E
:100ED800840057080318570A8500000822000800F4
:100EE8000F392A3E860001308700080044080F3970
:100EF8006A3E8600870108002000D70022004908C2
:100F08002000D600080086008701010D010D013977
:100F180021000800023E86005608C03F5708C13F1E
:100F2800080001082100A300200044080F39080028
:100F3800A030D901DA004030DB0001342A3E8600B7
:100F48000130870008006A088600C8308100080060
:100F5800230886003B3087018105080091009F30F7
:100F680097007B3092000800E201E301E30AE40104
:100F780008000034003400340034003400340034F5
:100F88004034AA34AA34AA342A3400340034003451
:100F980020349934993499341934553455345534A6
:100FA8001534923424344934123400340034003473
:100FB8001034D03449340034003400340034003460
:100FC8000034003400340034003440340034073432
:100FD80000340334043472340134003400340034EF
:0A0FE80001343C345034E634003488
:101000000034AB34053439346D34343403344B3468
:1010100000346C3400346F3400346E340034643483
:101020000034693400346B340034653400342034C7
:10103000003450340034723400346F3400346A3475
:1010400000346534003463340034743400340034C4
:1010500000340034003400340034003400340034F0
:1010600000340034003400340034003400340034E0
:101070000034343403344B340034313400343634E7
:1010800000340034003400340034003400340034C0
:1010900000340034003400340034003400340034B0
:1010A00000340034003400340034003400340034A0
:1010B0000034003400340034003400340034003490
:1010C0000034003400340034003400340034003480
:1010D0000034003400340034003409340234203445
:1010E0000034013401340034C0343234093404345F
:1010F000003400340234FF34FF34FF34003407344A
:1011000005340134023440340034013407340534EA
:101110008134023440340034013412340134003458
:1011200002340034003400340834D83404340A342F
:10113000F634003400340134023400340134103405
:101140004B34313436340034003400340034EF345E
:0E115000BE34AD34DE340434033409340434C8
:1011640098342F348A3442349134443437347134CB
:10117400CF34FB34C034B53410302200D0000230F8
:101184002000D600D70122005008013E2000D800DC
:10119400003003180130D90032218831560822006A
:1011A400EA002000D6004030D701D801D90032210E
:1011B400883157082200DA00200056082200D9009E
:1011C4002300A001A101A201A3012000E601E60A77
:1011D40022006A082000660203182C296608090701
:1011E40009079C3E860001308700403FDE00413FF6
:1011F400DF00423FE000433FE10022006A080907A4
:1012040009071C3E860003308700403F2000E200AF
:10121400413FE300423FE400433FE500E235E30D94
:10122400E40DE50D6208DE076308DF3D6408E03D78
:101234006508E13D660809070907A03E86000130FC
:1012440087005E08C03F5F08C13F6008C23F610875
:10125400C33FE92852302200CF00D701D80108004B
:10126400DB01D71F3C29D609D709D60A0319D70AA7
:10127400DB01DB0AD91F4529D809D909D80A031982
:10128400D90A0130DB06DC01DD01570856040319D5
:101294006529DA01DA0AD71B5229D635D70D4C292C
:1012A400DC35DD0D57085902031D5A29560858022A
:1012B400031C61295608D8025708D93B5C14D73659
:1012C400D60CDA0B52295B0803196D29DC09DD09F8
:1012D400DC0A0319DD0A5D08D7005C08D6000800A3
:1012E400FC012200B00104302200300203189C29C2
:1012F4002000911E892922003008433E86000130D7
:1013040087002300190881002200B00AFC01223062
:10131400FC0A7C02031C91292200DB0AAF2923006A
:101324009D1C752922004F08573A0319D60A230039
:101334009D13AF294F08573A031DAF293D30C10013
:101344005308C2004130F6000130F7004230F80083
:101354000130F9000730FA00B52123009D139D17D1
:101364002700960108007A082000D000D10122004D
:101374003A08F0000F30F101F200F301262289311E
:10138400200050087007D2005108713DD300520864
:10139400023ED4000030533DD500803AFF00803037
:1013A4007F02031DD72940305402031808000F3070
:1013B400F00022003A081A228931203E86000230C9
:1013C40087007608840077088500000881000F30C4
:1013D400F0003A081A228931213E86000230870043
:1013E40031088100FB017A087B020318152A0F30AB
:1013F400F00022003A081A228931223E7B0720009D
:10140400D0008600023087007908D2007808D10025
:101414007B085107840052080318520A850000080B
:101424008100FB0AF52922000330BA0ABA05080034
:10143400F100F20170087118F207F035F136F10885
:10144400031D1C2A72080800F401F501701C2E2AE1
:101454007208F4077308F53DF235F30DF136F00C1C
:1014640071087004031D282A7508F1007408F0003F
:101474000800E500472B03302200520203188B2A90
:101484002100EA278A316B082000D600D701220008
:1014940052082000D6070318D70A0330D6052D308A
:1014A400D701D800D901C9238A313C302100E10099
:1014B4002330E20020005608210061078400200048
:1014C40057082100623D85002D30FF0016001A00E8
:1014D400FF0B682A2200D20A4F08523A031D8B2AB6
:1014E4003C30B6278A318E278A31C9238A3156087F
:1014F4002100E100200057082100E20061082000DB
:10150400E607210062082000E73D14258A31DE2326
:101514008A312100E4278A314F30DE000130DF00B8
:101524000D30E00062238A315F2BEB012200D201EF
:101534005230452BE4278A319F30DE008830DF00AB
:101544000C30E00062238A315F2BEA278A311600CF
:10155400010403191A2B6508023E86000230870035
:1015640064308400013085000630FF0016001A0044
:10157400FF0BB82A00302200650280300319640290
:101584000318C72A8030E400E50100306502FB300F
:10159400031964020318D82A00306502E1300319E4
:1015A4006402031CD82AE030E400E501013065023E
:1015B400C23003196402031CE32AC130E400013081
:1015C400E50000306502FB30031964026408DC00A6
:1015D4006508DD00DE01DF010318F72A1330FB275D
:1015E4008A31890BF12A1730FD2A1230FB278A3100
:1015F400890BF82A0730DC040030DD040330DE04F4
:101604000030DF0465082000D700220064082000B1
:10161400D6000430D8003030D900F9268A31560873
:10162400003C2200CE0068082C0092002200D60163
:101634002100E4278A316430DE000130DF00063007
:10164400E00062238A315F2BEA278A310108313AAC
:10165400003003190130E100E10E22000C082100E2
:101664006106EF39610622008C0021006508023E04
:1016740086000108313A0319412B4430422B523081
:10168400E300E4012200CF008B2A650886000230C3
:1016940087000108413A0319972A023A0319A72A35
:1016A400063A0319262B0C3A03199C2A1A3A0319F1
:1016B4008B2A043A03193D2A5F2B22008C1608005A
:1016C4006008E100E20122003A082000D6000F3051
:1016D400D701D800D901C9238A3161085607E3002C
:1016E4006208573DE4006308023EE5000030643DB3
:1016F400E600803AFF0080307F02031D832B4030D8
:101704006502031808000F302000D60022003A08B2
:10171400B7268A31203E8600023087005C088400A8
:101724005D088500000881000F30D60022003A08C9
:10173400B7268A31213E8600023087002200310814
:1017440081002000E701600867020318C42B0F30F2
:10175400D60022003A08B7268A31223E6707E10004
:101764008600023087005F08E3005E08E200670835
:101774006207840063080318630A85000008810077
:10178400E70AA52B22000330BA0ABA050800DA01D9
:10179400DB01561CD12B5808DA075908DB3DD83534
:1017A400D90DD736D60C57085604031DCB2B5B082E
:1017B400D7005A08D60008008E278A31C9238A31F7
:1017C4003C30E8002330E9005608680786005708D3
:1017D400693D870001082200D3003C302000DC0072
:1017E4002330DD008E278A31C9238A31F5278A31D7
:1017F400DC076908DD3D5030DE001E248A312100FB
:101804000330EB0AEB052200D701D8014E08200073
:10181400950057302200CF00D203031908003C3052
:10182400B6278A318E278A31C9238A31F5278A312E
:10183400E6076908E73D142D8B1348302200BD00EC
:101844009030BE005C30AC000130AD000230C0000E
:1018540068248A31CB278A312130AC070318AD0ABA
:101864000330C00068248A31C4302200AC00013047
:10187400AD000530C00068248A31CB278A31AC0A18
:101884000319AD0A0830C00068248A31C030220030
:10189400AC000130AD00C001C00A68248A312000C8
:1018A4005E082200BE00BD00A030AC000130AD00D7
:1018B4006A08C0006824D83022008E008B17FD30DF
:1018C400DC05FF30DD05DE05DF05080022002C08FD
:1018D40086002D08870048308E01011890308E0054
:1018E40048308E01811890308E0048308E010119E5
:1018F40090308E0048308E01811990308E0048302F
:101904008E01011A90308E0048308E01811A903079
:101914008E0048308E01011B90308E0048308E01BD
:10192400811B90308E00413148308E010118903077
:101934008E0048308E01811890308E0048308E0120
:10194400011990308E0048308E01811990308E003C
:1019540048308E01011A90308E0048308E01811A71
:1019640090308E0048308E01011B90308E0048303C
:101974008E01811B90308E00413148308E01011858
:1019840090308E0048308E01811890308E0048309F
:101994008E01011990308E0048308E0181199030EB
:1019A4008E0048308E01011A90308E0048308E012E
:1019B400811A90308E0048308E01011B90308E00C9
:1019C40048308E01811B90308E00413148308E01A9
:1019D400011890308E0048308E01811890308E00AE
:1019E40048308E01011990308E0048308E018119E3
:1019F40090308E0048308E01011A90308E004830AD
:101A04008E01811A90308E0048308E01011B903077
:101A14008E003D088E01811B3E088E004131C00BB3
:101A24006D2C0800D830860001308700A83084006F
:101A3400003085000C30FF0016001A00FF0B1E2D2D
:101A44002100E00173278A31860023088700413191
:101A5400AD278A31600809070907B83E8600870167
:101A64002408C03F2508C13F2608C23F2708C33FBA
:101A74000830E00A6002031C242DE00145278A3166
:101A8400B7268A31183E1E278A31B7268A31143E7A
:101A9400B83E86008701403F2100A400413FA500D5
:101AA400423FA600433FA70020082406DC0021088B
:101AB4002506DD0022082606DE0023082706DF00AF
:101AC40045278A31B7268A31103EB83E30278A31FD
:101AD400DC278A3145278A31B7268A31183EB83E39
:101AE40030278A31DC062108DD062208DE062308B9
:101AF400DF06600809070907A83E8600403FBB27A8
:101B04008A3173278A31213E86000030233D8700C5
:101B1400403FBB278A3145278A31B7268A311C3E8C
:101B2400B83E86008701403F2100BB278A31452704
:101B34008A31B7268A3163278A315B278A311A3082
:101B4400DD00C4268A314B278A3145278A31B726DE
:101B54008A3163278A315B278A311530DD00C42638
:101B64008A315C082100B70020005B082100B60020
:101B740020005A082100B500200059082100B400B3
:101B84005808D4278A3145278A31B7268A316327F2
:101B94008A315B278A310730DD00C4268A314B271E
:101BA4008A31D4278A3134085C07A00035085D3DAA
:101BB400A10036085E3DA20037085F3DA30045271B
:101BC4008A31B7268A31F0278A3169278A31452735
:101BD4008A31B7268A311C3E1E278A31B7268A31BC
:101BE4000C3EB83E86008701403F2100A007413FDC
:101BF400A13D423FA23D433FA33D45278A31B7263D
:101C04008A310C3EB83E8600870169278A318627CF
:101C14008A31403F20005B278A311E30DD00C42614
:101C24008A3197278A3186278A318701403F2000ED
:101C34005B278A311330DD00C4268A314B278A3171
:101C44005C08C3278A3186278A318701403F2000F8
:101C54005B278A310A30DD00C4268A3197278A310E
:101C6400C3278A316008013CA7278A318701403F96
:101C74003D278A3186278A31AD278A3120082404FA
:101C8400DC0021082504DD0022082604DE002308E8
:101C94002704DF006008023CA7278A31403F3D2724
:101CA4008A312008DC278A316008013CA7278A3161
:101CB400403F3D278A3186278A31AD278A31200863
:101CC4002405B40021082505B50022082605B60020
:101CD40023082705B7003408DC043508DD0436087A
:101CE400DE043708DF0458085C07A00059085D3D8E
:101CF400A1005A085E3DA2005B085F3DA300452792
:101D04008A31B7268A31F0278A31210020088107D9
:101D140041312108813D41312208813D413123086F
:101D2400813D45278A31B7268A311C3E1E278A31D8
:101D3400B7268A31C83E86000130870069278A3178
:101D440045278A31B7268A310C3E1E278A31B726A9
:101D54008A31D43E86000130870069278A310330F6
:101D6400E00A600203180800402D2000D800D701C3
:101D740056085818D707D635D836D808031DBA2EB2
:101D8400570808005908DE005A08DF005B08E00025
:101D94005C08E1005D08203C890AD52E0310E10CA3
:101DA400E00CDF0CDE0CFF3E031DD02E5908E200D0
:101DB4005A08E3005B08E4005C08E5005D0AE62ECF
:101DC400E235E30DE40DE50D890BE22E6208DE0435
:101DD4006308DF046408E0046508E1046108DC00CA
:101DE4006008DB005F08DA005E08D9000800DB0148
:101DF400DC01570856040319192FDA01DA0AD71B34
:101E0400062FD635D70D002FDB35DC0D57085902C8
:101E1400031D0E2F56085802031C152F5608D8020E
:101E24005708D93B5B14D736D60CDA0B062F5C085F
:101E3400D7005B08D6000800B83E86008701403F03
:101E44002100A000413FA100423FA200433FA30064
:101E5400FC302000D60021006008080086008701BD
:101E6400403F2100A000413FA100423FA200433F68
:101E7400A30020080800A000413FA100423FA200A7
:101E8400433FA3000800FC302000D6002100600876
:101E940008005C082100DB0020005B082100DA0058
:101EA40020005A082100D900200059082100D80038
:101EB4000800D900413FDA00423FDB00433FDC0029
:101EC4000800103EB83E86008701403F080021000C
:101ED4002008C03F2108C13F2208C23F2308C33F56
:101EE40008006008A000A101A035A10DA035A10D36
:101EF4002008200066072100A20021082000673D79
:101F04002100A300220808006008003C07390907E3
:101F14000907B83E8600080021006B082000D6009F
:101F24002D30D701D800D90108005C082100DF005A
:101F340020005B082100DE0020005A082100DD009B
:101F4400200059082100DC000800073909070907A7
:101F5400B83E86000800403FA400413FA500423F30
:101F6400A600433FA70008002000E6002330E70056
:101F74000800DC07413FDD3D423FDE3D433FDF3D9E
:101F84000800D8065D08D9065E08DA065F08DB0695
:101F9400080020005D082200AD0020005C0822003B
:101FA400AC000800B4065908B5065A08B6065B0822
:101FB400B7060800DC052108DD052208DE05230834
:101FC400DF05080065082000DC000230DD000800A1
:101FD4006508023E86000230870008001C3EB83EB9
:101FE4008600870108005608E8005708E9006808D9
:101FF4000800DC35DD0DDE0DDF0D080080315D28C5
:1020040080315E2880314A2880315E2880314A2818
:1020140080314B28803151288031702880315328F9
:102024008031522880315F288031662880314A28E7
:102ED800FE0012001E000130FE020030FF3B7F089A
:102EE8007E04031900346D2F640080010131013024
:102EF800FE020030FF3B7F087E0403190034792F5F
:102F08006E0886008701413FDB00D800D9015908C7
:102F180022002402031D942F2000580822002302B7
:102F28000318992F23082000DB0020005B08D80035
:102F3800D90122002302A300200059082200243BC3
:102F4800A4002000DA015B085A020318BB2F2200F4
:102F580020088600870120005A08483E8400850121
:102F6800000881002200A00A2000DA0AA72F0330F7
:102F7800203E860001308700160001040319DA2F6D
:102F88006F0A86000830870181004830F62797319C
:102F98006E0886006F08011BD52F8600C830810097
:102FA8000800860088308701810008006F0AF12731
:102FB8009731F62797316F08860084308100220008
:102FC80025080319EA2F25089731E92FA2132000B5
:102FD800EC08031D08008331FD2B860008308701AB
:102FE80081004034D800D9016F08023E8600580895
:082FF800C03F5908C13F080069
:020000040001F9
:04000E0084CFCFDFED
:00000001FF
